:020000041000EA
:10000000002008205D0100101B0100101D010010E0
:100010001101001011010010110100101101001058
:100020001901001019010010190100101F01001022
:10003000110100101901001021010010230100100E
:100040001101001011010010110100101101001028
:100050001101001011010010110100101101001018
:100060001101001011010010110100101101001008
:1000700011010010110100101101001011010010F8
:1000800011010010110100101101001011010010E8
:1000900011010010110100101101001011010010D8
:1000A00011010010110100101101001011010010C8
:1000B00011010010110100101101001011010010B8
:1000C00011010010110100101101001011010010A8
:1000D0001101001011010010110100101101001098
:1000E0001101001011010010110100101101001088
:1000F0001101001011010010110100101101001078
:100100001101001011010010110100101101001067
:10011000EFF30580103800BE00BE00BE00BE00BE7A
:1001200000BE00BEF2EB8871F05B00103C5C00107A
:10013000A001001090A31AE7D3DEFFFF42012110B7
:10014000FF01000064610000793512AB4FF0000040
:100150001E49086006C881F3088810474FF05040D8
:10016000006810B14FF00000F2E70DA40ECC00299A
:1001700002D000F012F8F9E71549164A002000E015
:1001800001C19142FCD11449884714498847144958
:10019000884700BEFDE701C901C29A42FBD3704700
:1001A0003C5C001010010020700700209C620010D1
:1001B00000000820000008209C62001000100820A9
:1001C00000100820000000007047000008ED00E06B
:1001D00070070020D41100203D2D001035020010C2
:1001E000012D0010F8B500BF064B0749C91A891048
:1001F00048BF0131491003D0044B0BB101481847E7
:10020000704700BF7007002070070020000000004A
:1002100008B5054B1BB105490548AFF30080BDE8A3
:100220000840FFF7E1BF00BF000000006C11002094
:10023000EC50001070B596B002F096FE40F6B83063
:1002400000F0FCFE1E4A13889BB201339BB2138060
:100250001C4C204602F08DFE1B4A1C491C4802F033
:10026000B7FE204602F085FE04F0D6FB04F0F4FB56
:1002700004F0BCFB04F000FC04F046FC154C04F157
:100280001005582632462946684604F051FE94E887
:100290000F0004F057FC32462946684604F048FE39
:1002A00094E80F0004F0A2FC41F288320A490020D1
:1002B00004F04AFD011EF7DA084802F089FEFEE765
:1002C000C8110020F05000102C51001038510010BF
:1002D000445100109059001064090020585100103A
:1002E0000C4B03EB800253F8203083F0400303F003
:1002F000C00302F5805CCCF80030C00000F1804003
:1003000000F52030416002F540524FF480731360D5
:10031000704700BF0480034008B54FF0000242EC74
:10032000440042EC40000521FFF7DAFF08BD000061
:100330000FB400B583B0049C074802F01AFE3CB12C
:1003400005A90191204602F023FE044802F011FEA7
:10035000012002F0D3FC00BFD0510010285900103A
:10036000EFF3108072B6064BD3E8CF1F01220029AD
:10037000FAD1C3E8412F0029F6D1BFF35F8F704750
:100380000F0900200023034AC2E88F3F80F3108842
:10039000704700BF0F09002070B505460C46164691
:1003A000FFF7DEFFE208A95C04F0070C012303FA63
:1003B0000CF3194205D1DBB20B43AB54FFF7E2FF5C
:1003C00070BD21463046FFF7B3FFF8B506460D462F
:1003D00014461F46FFF7C4FF00E00134BC420ED8AC
:1003E0004FEAD40C16F80C1004F0070301229A40CF
:1003F0001142F2D1D2B20A4306F80C2001E04FF0CC
:10040000FF34FFF7BFFF002C01DB2046F8BD002DB5
:10041000FBD00698FFF78CFF054A1078431CDBB22F
:100420001370172B02D9134610221A70704700BFA1
:10043000B006002000B583B00146054B00931F2392
:1004400018220448FFF7C1FF03B05DF804FB00BFAA
:10045000E05100102C0900204FF0E022936843F097
:100460000053936070470000002305E0044A1A44DB
:100470000021C2E88F1F01331F2BF7D9704700BF3F
:1004800004090020064B9B68103043F82010BFF38E
:100490005F8F00230349C1E88F3F82F310887047C4
:1004A00000ED00E00D0900200048704700E400E086
:1004B00008B5FFF7F9FF002304E04FF0803240F861
:1004C000042B01330C2BF8D962B608BD08B503889C
:1004D000DA0A1C2A06D15B050BD45B15023300EB4C
:1004E000430008BD064B074A4FF48F71064802F0DF
:1004F0000BFC03F5FF1303F5FF531F33EDE700BFBC
:10050000FC510010445A00101452001008B5091A8A
:1005100001F2FC7240F6FE739A4208D8081F11F0EF
:10052000010F04D1C0F34A0040F4604008BD034B02
:10053000034A4FF48871034802F0E6FB5C52001056
:10054000385A00101452001008B5091A04394B0823
:10055000090B0AD1C1F30A0141F4704101806FEA2D
:1005600043536FEA5353438008BD034B034A4FF490
:100570008C71034802F0C8FB8C520010145A001012
:10058000145200104209064B53F8223000F01F00AD
:100590000122824003EA0200003818BF01207047A0
:1005A00000E100E03AB1064B00F1600243F822108E
:1005B00043F8201070472030014B43F8201070475B
:1005C00000E100E008B50A4600F01F030121994050
:1005D0004009FFF7E7FF08BD024B9B68103053F856
:1005E0002000704700ED00E070B505460C46EFF3C3
:1005F000108672B60F4BD3E8CF1F01220029FAD123
:10060000C3E8412F0029F6D1BFF35F8FFFF7E4FF66
:10061000094B984201D0A04205D1324621462846D6
:10062000FFF730FF70BD054B054AEF21054802F08A
:100630006BFB00BF0D090020110100109C5200103F
:10064000545A0010145200102DE9F04706460D468A
:10065000EFF3108872B6504BD3E8CF1F0122002968
:10066000FAD1C3E8412F0029F6D1BFF35F8F4B4B7E
:100670009B6800F1100A53F82A70494B9F4207D03B
:10068000AF4200F087803C46464BFB1A2F2B06D921
:10069000424639463046FFF7F5FEBDE8F087FFF7E2
:1006A00071FF814600213046FFF78CFFBFF35F8F5B
:1006B000EFF30580C0B208B1824510D124F00104E7
:1006C0000021A268954212D094F90630002B0DDB70
:1006D00003EB43032146334C04EB8304F1E7324B35
:1006E000324A4FF40171324802F00EFB2146954226
:1006F00049D194F90650002D2BDB05EB4502294B1F
:1007000003EB82039A68A260DA79E27193F906300A
:10071000A371002B10DA4BF60150A08005EB4502C7
:10072000204B03EB8203234A1178997115704946D7
:100730003046FFF747FFABE705EB4503194800EBF1
:1007400083000430FFF7C2FE0146201DFFF7DEFEE6
:10075000E3E798B981B1FF238B714BF601538B808E
:10076000144A1378A3714AF6AA230E49641A644105
:1007700063431B0D1370DAE7094FF1E70E49201DA3
:10078000FFF7E2FED3E70D4B084A40F24621084846
:1007900002F0BAFA024F7BE70D09002000ED00E0FD
:1007A00011010010B4060020D4520010245A001089
:1007B00014520010CF110020EE0600200853001044
:1007C00038B540F00104324BE31A2F2B31D8EFF348
:1007D0000581C9B2002933D0EFF3108E72B62D4BCC
:1007E000D3E8CF5F0122002DFAD1C3E8452F002DB9
:1007F000F6D1BFF35F8F4AF6AA230246244D521B5F
:10080000524153431B0D4FFA83FC234B9B6853F813
:100810002130A3421BD00023032B32D803EB43012A
:100820001B4A02EB810292F90620624520D0013377
:10083000F2E71A4B1A4A40F281211A4802F064FA90
:10084000194B174A4FF42171164802F05DFA124B0A
:100850009B68164A43F82120154B1A78827183F859
:1008600000C000230B4AC2E88F3F8EF3108838BDCA
:10087000074A02EB8101FF248C714BF601538B80F8
:10088000EAE70C4B064A40F29521064802F03CFA92
:10089000B40600200D09002000ED00E01053001008
:1008A000F8590010145200103853001011010010B4
:1008B000CF11002044530010014B0B4403607047DC
:1008C0000409002010B50446FFF7A6FD01462046A6
:1008D000FFF7F2FFFF232371BFF35F8F10BD10B549
:1008E0000446FFF799FD01462046FFF7E5FFFF2389
:1008F000237100236371BFF35F8F10BD10B50D4CE2
:1009000009E00D4B0D4A1A210D4802F0FDF9204671
:10091000FFF7D8FF08340B4B9C4209D22368002B09
:10092000F5D0012BEDD12046FFF7D9FF0834F2E7CF
:1009300010BD00BF680700204C530010945A0010EF
:100940006C53001070070020024B0B440360BFF390
:100950005F8F70470409002010B504460120FFF79F
:1009600069FD01462046FFF7EFFF10BD0246EFF399
:100970000583DBB2103B990804D0034803F003035E
:10098000136070470148F9E700800B4000000B40FE
:1009900010B4846AA2EB040C0B1D50F823301B1B0F
:1009A0009C4504D3046A01238B401C4202D10431CC
:1009B00040F821205DF8044B704741EA0040704741
:1009C0000D4B1A68EFF3108172B6D2E8CFCF012039
:1009D000BCF1000FF9D1C2E84C0FBCF1000FF4D10B
:1009E000BFF35F8F1A680023C2E88F3F81F310883E
:1009F00040BF002000217047A41100202DE9F04FD6
:100A000085B003A8FFF7B2FF954B984214BF0023AF
:100A10000123039901EB8303924A52F82340237880
:100A2000994206D1054601228A4000F541535A6099
:100A30002CE18D4B8D4A92218D4802F065F9D4F856
:100A4000149006EB46074FEAC70A09EBC707D7F829
:100A500008B0D7F80C80284600F0B2FBB0EB0B00D2
:100A600061EB0803002BC0F21A81B8F1000F64DBC0
:100A70003B691A4600937F4B9A4230D0798889B2FD
:100A8000B4F90800FFF799FF7969009B9847009037
:100A900001910099019A51EA02034ED01346002AAF
:100AA00029DABBEB010268EB0308BA60C7F80C80D7
:100AB00039F90A70002FC0F2F280D4F814E007EB85
:100AC00047030EEBC3039968DB68511A68EB030315
:100AD000002BC0F2E480A4462CF8087F17E07A6966
:100AE000136900921046984738B3009A1368009330
:100AF00053680193CDE7284600F062FB009B1A186B
:100B0000019B43EB0108D0E79C463EF90B70002F98
:100B10000EDBBCF9003003EB43034FEAC30B0EEBD3
:100B2000C3039868D968101A68EB01010029EBDA51
:100B300029F80A70ACF80060B1E039F90A30238175
:100B40002369EFF3108272B6D3E8CF0F012100289A
:100B5000FAD1C3E8401F0028F6D1BFF35F8FB4F984
:100B6000023029F80A30668021690023C1E88F3FEE
:100B700082F3108893E02369EFF3108272B6D3E812
:100B8000CF0F01210028FAD1C3E8401F0028F6D179
:100B9000BFF35F8FB4F804800FFA88F84FF6FF7345
:100BA000A38021690023C1E88F3F82F310881AE0F7
:100BB0001F4630F90A60002E0FDBB7F9003003EB57
:100BC00043034FEAC30A00EBC3039968DA68BCEB3E
:100BD00001016EEB0202002AEADAA7F8008030F980
:100BE000098020F80960B8F1000F5DDB606908EB4F
:100BF00048034FEAC30900EBC303D3F808C0D3F896
:100C00000CE004F10807B4F90860D4E70023A371ED
:100C100004F1080CB4F9083010E04FF0FF384FF041
:100C2000FF39C0E90289B4F90800984205D0ACF850
:100C30000020B4F90800C85323811346B3F1FF3FE5
:100C400035D0616903EB4302D70001EBC20031F9F3
:100C50003220468816F4004FDFD18446EDE700BF0E
:100C600000800B408411002000540010C05A001076
:100C70002C540010FD090010284600F0A1FA3F1A7C
:100C800066EB0106012F76F1000628DA039A0123AC
:100C90009340EB63B4F90860002EBFF6D0AEA38892
:100CA00013F4004F3FF467AFA379002BAED1B4F932
:100CB0000830002B13DB626903EB430302EBC30331
:100CC0009F68DE68B6F1FF3F08BFB7F1FF3FD3D0A2
:100CD0003A46334603992846FFF75AFECCE740BF11
:100CE00005B0BDE8F08F00BFF8B504460D461146CB
:100CF0000A4B984210D000262E44012707FA05F52A
:100D000025623046FFF770FC39463046FFF75AFC43
:100D100004F501542560F8BD0426EDE700800B4082
:100D2000F8B504460E4617461D46C160FFF774FB32
:100D3000164B034423612770ABB263814FF05042DE
:100D4000127862704FF6FF722281A280013B6380AD
:100D50004FF0000C08E00CF1FF300CEB4C0E636917
:100D600023F83E000CF1010CAC45F4D3084B9E4235
:100D700014BF0023012307EB8303064A42F82340F4
:100D8000054A39463046FFF7AFFFF8BD0409002099
:100D900000800B4084110020FD09001008B5054BB0
:100DA0001B690BB1034808BD034B044A6521044885
:100DB00001F0AAFFFC0600206C540010A85A001095
:100DC0002C540010F8B504469E460069EFF31081DC
:100DD00072B6D0E8CF6F0125002EFAD1C0E8465F89
:100DE000002EF6D1BFF35F8FB4F90250666905EBB0
:100DF0004500C70006EBC000002D03DB36F907C035
:100E0000A4F802C04FF0000C2369C3E88FCF81F330
:100E10001088654533DB069901610799416182605D
:100E2000C0F80CE0418889B20131C1F30E0101B96B
:100E3000012141802846FFF7C0FD2369EFF31082AE
:100E400072B6D3E8CFCF0121BCF1000FF9D1C3E8CE
:100E50004C1FBCF1000FF4D1BFF35F8FA388F35395
:100E6000A58021690023C1E88F3F82F31088E368E1
:100E7000217801228A4003F501535A60F8BD4FF0F2
:100E8000FF30FBE770B582B0064615461C469DF85C
:100E9000203033B900F0BEF9854264EB010100292E
:100EA0000ADB079B0193069B00932A4623463046A4
:100EB000FFF788FF02B070BD0020FBE7F0B585B0FA
:100EC00005460C4616461F46FFF768FF9DF828307A
:100ED0000293019700962A462346FFF7D3FF05B0F9
:100EE000F0BD03464089B0EB214F31DD10B50A1447
:100EF000586902EB420200EBC2001A69EFF3108C52
:100F000072B6D2E8CF4F5FF0010E002CF9D1C2E8E3
:100F100044EF002CF5D1BFF35F8F428892B289B2C3
:100F20008A420FD0002019690022C1E88F2F8CF36C
:100F3000108830B1DA681B780121994002F501531D
:100F4000596010BD42F40042428001209871EAE7E6
:100F50000020704710B50446FFF720FF2146FFF739
:100F6000C0FF10BDF0B583B0EFF30583DBB2CBB9A2
:100F700004460D46861F41F1FF37B04271EB07036F
:100F800001D20026374600F045F9301A67EB01031D
:100F9000012873F1000308DA2046294600F04CF9D5
:100FA00003B0F0BD1848FFF7C3F900230093174AB8
:100FB00030463946FFF782FF002819DAECE7144B78
:100FC0001A68EFF3108172B6D2E8CFCF0120BCF1DE
:100FD000000FF9D1C2E84C0FBCF1000FF4D1BFF300
:100FE0005F8F1A680023C2E88F3F81F3108820BF0B
:100FF000084B5B6A9F42E2D8064A926AB242CBD261
:101000009F42C9D1DBE700BF90540010C109001016
:10101000A411002000000B4038B504460D4600F036
:10102000F9F8201845EB0101002902DBFFF79AFFD0
:1010300038BD4FF0FF306FF00041F7E708B5C30E41
:101040004101091A63F100039B0043EA917389008F
:10105000091843F10003DB00C80043EA5171FFF7B0
:10106000DBFF08BDF0B583B005460C46EFF3058302
:10107000DBB293B1384B5B6A8B4209D3364A926A32
:10108000824208D28B4201D0012002E0002000E021
:10109000002003B0F0BD0120FBE7FFF77FFEC7682B
:1010A0000678384600F08CF82A1A64EB0101043601
:1010B00057F826301B1A9A4271F1000112DB20BF4B
:1010C000254B5B6A9C4209D8234A926AAA4207D2FE
:1010D0009C4201D00120DCE70020DAE70020D8E7BD
:1010E0000120D6E7002300931C4A28462146FFF73B
:1010F000E5FE002818DD184B5B6A9C4205D8164AAD
:10110000926AAA4202D29C4200D120BFFFF722FF7E
:10111000114B5B6A9C421BD80F4A926AAA4219D2B1
:101120009C4213D00120B4E70B4B5B6A9C4209D868
:10113000094A926AAA4207D29C4201D00120A8E73C
:101140000020A6E70020A4E70120A2E70020A0E7F6
:1011500000209EE701209CE700000B40C109001021
:101160000048704700000B4010B50A4B1B6923B1C3
:101170000A210948FFF7A0FB10BDFFF7F1FF044665
:10118000032100F00BF81023032221460148FFF74A
:10119000C7FDEDE7FC060020A411002010B5054AAC
:1011A000054C064BA04214BF1846581CFFF7F4F834
:1011B00010BD00BFE054001000800B40300900203B
:1011C0000246436A906A1946536A9942FAD17047B7
:1011D000416A00E0416A9942FCD300E0416A9942C9
:1011E00002D1816A9142F9D3704770B50646144620
:1011F0001D46FFF7E5FF021941EB0503824273EB41
:10120000010102D24FF0FF3213463046FFF7E0FFF4
:1012100070BD000008B50248FFF7D2FF08BD00BF4F
:1012200000000B4008B502460B460248FFF7DDFF01
:1012300008BD00BF00000B4008B502460B4602483F
:10124000FFF7C6FF08BD00BF00000B40074B9842E8
:101250000AD01A2301229A40054B1A60054B9B685D
:1012600032EA0303FAD170471B23F3E700800740FB
:10127000003002400000024038B5046B14F0010F4A
:1012800001D1204638BD00F5405340F201321A63C7
:10129000436A856A05EB8315AD02062000F0EAF883
:1012A000044BA3FB0030C00AB5FBF0F00021FFF7B0
:1012B000B9FFE6E7757B2B8F70B505460C461646E1
:1012C000FFF7DAFFEB6A5C40344005F58153DC60E0
:1012D000286370BD70B505460C46062000F0CAF8BC
:1012E000C300B3FBF4F30133DC0907D04FF6FE7201
:1012F000944214D82646C3F3450400E001266E62EA
:10130000AC62002211462846FFF7D6FF062000F007
:10131000B1F8800004EB8614B0FBF4F070BD00243B
:101320004FF6FF76EBE7000049B10A22054B9842E1
:1013300014BF00200120044B23F8102070474FF405
:101340008072F3E700800740C011002038B50446E2
:101350000D46062000F08EF8F8B1114B9C421DD0CE
:101360001A22012393400F4A13602046FFF76EFFB5
:1013700000212046FFF7D8FF29462046FFF7AAFFA5
:10138000E36A83F0700303F07E0304F58152D360B7
:1013900040F2013323630323A36438BD1B22E0E73B
:1013A000008007400020024070B51646049D00EB07
:1013B000400C4FEA8C0C0CF1804C0CF5803CDCF8B6
:1013C0000420AA4201D2CCF80450A0F1040E5FFA26
:1013D0008EFEBEF1010F28D90CF540524FF4006487
:1013E00014601E4A52F8202042B11C4C6469B4FBC0
:1013F000F2F4013404EB4404033CFDD2DCF8002099
:1014000082EA461202F0E0020CF580542260BEF13E
:10141000010F16D90CF500524FF400611160CCF8A1
:1014200004500E4A42F8203070BD0129D4D10CF589
:10143000405203241460DCF8082012F0010FFAD0A7
:10144000DCE7DCF800204A4002F003022260DCF80E
:10145000084001228A401442F9D0DBE73409002019
:1014600010B582B04FF480340094FFF79DFF02B0B6
:1014700010BD0000014B53F82000704734090020D4
:1014800070B5049C344DB5FBF1FC344D1544344E1D
:10149000B54237D8B2FBFCF5A5F1100EBEF5987F2A
:1014A00036D803F1FF3EBEF1060F37D804F1FF3EF8
:1014B000BEF1060F32D8BCEB121F35D8240344EA24
:1014C00003440368002B35DB264B984242D00E23A1
:1014D00001229A40244B1A6003F580531A60234B73
:1014E0009B6832EA0303FAD10160856000F540523F
:1014F0000432212313600368002BFCDAC460082344
:10150000136070BD1A4B1B4A11211B4801F0FCFBF4
:101510001A4B184A1921184801F0F6FB184B154AC6
:101520001C21154801F0F0FB164B124A23211248EA
:1015300001F0EAFB036803F03F038B42C4D18368E8
:10154000C3F30B03AB42BFD1C36803F4EE23A34242
:10155000BAD1D6E70F23BBE7001BB70080E84BD317
:1015600080F8A932008005400020024000000240BF
:1015700004550010D85A0010545500109C55001006
:10158000B855001004560010054A00EB400302EB6A
:101590008303596000EB4000800001231350704723
:1015A0000080104008B50023DB8A002242E800F2E8
:1015B00012F4800F02D11021984708BD04219847EA
:1015C000FBE70000034BD3F82838002BFAD0BFF319
:1015D0005F8F704700000E40002207E0054B134468
:1015E0009B00BFF35F8F002119600132072AF5D9F4
:1015F000704700BF0382031008B5FFF7EDFF08BD79
:10160000074B4FF42A621A604FF48D72DA6003F5CB
:101610000053044A1A60024B5B68002BFBDA7047E8
:101620000080044000B0FA0010B5044602E054F80F
:10163000043B9847014B9C42F9D310BDE850001081
:101640007047000008B50248FFF7EEFF08BD00BF75
:10165000A8500010064B074A1A6003F58053064A4B
:101660001A60064B9A68044B9343FAD1704700BF47
:10167000002002407F3BEFEFF6FFF3030000024043
:10168000054BDB6CB3F5004F00D07047034B4FF4B4
:101690008022DA64F9E700BF0000115000201150E9
:1016A0004FF0E022D2F8881D034B0B43C2F8883D6F
:1016B00010EE3004704700BF03033000054B6FF09D
:1016C00060421A60044B9B68DB4333F06043F9D1FE
:1016D000704700BF003002400000024008B545F2EC
:1016E0005320FFF75FFF03460420984708BD08B565
:1016F00045F25320FFF756FF03460120984708BDE7
:1017000008B5FEF7B1FE08BD10B50C490C4A521AD7
:1017100092101446442A28BF44229200094803F03C
:1017200007FC04E0084A074B43F824200134432C0B
:10173000F8D9044A054B9A6010BD00BF00000010A4
:1017400010010010000000201101001000ED00E069
:1017500038B50420FFF78EFE064BA3FB0035AD0C19
:10176000002404E02946E0B2FFF70EFF0134052C07
:10177000F8DD38BD83DE1B4330B583B0264B002235
:10178000C3F88420FFF73CFF244B0122DA63224B8D
:101790005B6C012BFBD1214B03221A631E4B9B6B0D
:1017A000012BFBD10224009405231D4A01211D4871
:1017B000FFF766FE052500952B461B4A01211B48B5
:1017C000FFF75EFE1A4B002221460420FFF748FE79
:1017D000184C2346002201212846FFF741FE164DF2
:1017E0002B46002211460820FFF73AFE2B46002226
:1017F00011460920FFF734FE234600221146062039
:10180000FFF72EFE2346002211460720FFF728FE91
:10181000FFF79EFF03B030BD0000014000300140E3
:10182000002F685900000540008C86470080054065
:10183000001BB70080D1F008006CDC0286B003B456
:1018400051FC0804CDE9020151FC0904CDE9040171
:1018500051EC0A04CDE9060103BCF047BDE8005095
:101860004EEC00C4BDE800504EEC01C4BDE8005091
:101870004EEC02C400BD000000B5FFF7DFFF02E040
:1018800010FE30F4F8D441EC100443EC112400EEC7
:10189000010410EE010480EE200451EC10047047A6
:1018A00000B5FFF7CBFF02E010FE30F4F8D441ECB6
:1018B000100443EC112400EE010410EE210480EE2C
:1018C000200451EC3004704700B5FFF7B7FF02E089
:1018D00010FE30F4F8D410B541EC100443EC1124A0
:1018E00051EC040453EC0524A0FB024C5FF0000E05
:1018F000E0FB03CEE1FB02CE4CEC20440024E1FBF4
:1019000003E444EC30E480EE200451EC5004BDE8E4
:101910001040704700B5FFF791FF02E010FE30F471
:10192000F8D441EC100443EC112451EC2104A0FB49
:1019300001126FEA820252FB100052FB12F252FBBC
:101940001000A0EBD07C53EC04245CFB13F153ECAF
:101950001524A1FB022001FB030053EC4424A2EB5D
:10196000000050FB1CF24FEA111312EB017043EB25
:10197000E27140EA515020EA915020F0070053EC08
:101980007524A0FB023C53EC752400FB03CC01FB47
:1019900002CC53EC0424ACEB824C40EA5C70A0F126
:1019A000010041EC400480EE200451EC70047047CB
:1019B00000B5FFF743FF02E010FE30F4F8D440EC2E
:1019C000700400EE010410EE210480EE200451ECBE
:1019D0003004704700B5FFF731FF02E010FE30F42D
:1019E000F8D440EC600400EE010410EE210480EE17
:1019F000200451EC3004704700B5FFF71FFF02E0F0
:101A000010FE30F4F8D441EC800400EE010410EE36
:101A1000010480EE400410EE1304704700B5FFF798
:101A20000DFF02E010FE30F4F8D441EC800400EE2B
:101A3000010410EE010480EE400410EE3304704700
:101A400000B5FFF7FBFE02E010FE30F4F8D441ECE5
:101A5000100443EC112400EE010410EE3004C0F336
:101A60000070704700B5FFF7E9FE02E010FE30F4A9
:101A7000F8D443EC102441EC110400EE010410EE04
:101A800030F48CBF01200020704700BF00B5FFF785
:101A9000D5FE02E010FE30F4F8D443EC102441EC03
:101AA000110400EE010410EE30F42CBF01200020E0
:101AB000704700BF00B5FFF7C1FE02E010FE30F432
:101AC000F8D441EC100443EC112400EE010410EEB4
:101AD00030F42CBF01200020704700BF00B5FFF795
:101AE000ADFE02E010FE30F4F8D441EC100443ECFB
:101AF000112400EE010410EE30F48CBF0120002010
:101B0000704700BF704720B108B50A684968904720
:101B100008BD70470146002008E000EB8000531C20
:101B20000B60137803EB4003A3F130000A681378CD
:101B3000303BDBB2092BF0D970472DE9F04F83B071
:101B400005460E4693461F46DDF830A00D9CDDF895
:101B500038900F9B13F0030F19D1A046019208E0B3
:101B600002F1010B3B4631462020A84708F101084D
:101B70005A46C845F4D3DDF804B008E0013C02F150
:101B800001083B4631461AF80400A8474246002C9B
:101B9000F4D10F9B13F0020F09D1104603B0BDE83A
:101BA000F08F541C3B4631462020A8472246A2EB2A
:101BB0000B034B45F5D3F0E72DE9F04385B099468B
:101BC0000C9D0D9C9DF83880DDF840E0119F129E21
:101BD00016F0020F21D17FB116F0010F0CD0B8F131
:101BE000000F02D116F00C0F06D0013F04E04FF0B9
:101BF000300C05F804C00134744501D21F2CF6D90D
:101C000016F0010F09D0BC4207D21F2C05D84FF0A7
:101C1000300C05F804C00134F2E716F0100F14D0B0
:101C200016F4806F04D11CB1744522D0BC4220D080
:101C30000F9B102B33D00F9B022B3DD01F2C0ED8A7
:101C40004FF0300C05F804C001341F2C07D8B8F150
:101C5000000F39D04FF02D0C05F804C00134039665
:101C60000297019400954B46FFF767FF05B0BDE86A
:101C7000F083B4F1010C1DD00F9B102B0ED06446E5
:101C80000F9B102BD7D116F0200FD4D01F2CD2D8F9
:101C90004FF0580C05F804C00134CFE7023C16F0B1
:101CA000200FEDD11F2CEBD84FF0780C05F804C0B5
:101CB0000134C3E76446BBE71F2CD0D84FF0620C59
:101CC00005F804C00134B9E716F0040F05D04FF051
:101CD0002B0C05F804C00134C1E716F0080FBED084
:101CE0004FF0200C05F804C00134B8E7F0B591B00E
:101CF000169C189D1B9E0CB926F0100616F4806EDB
:101D00001DD064B34FF0000E19E016F0200F24D060
:101D10004127BC445FFA8CFCACF10A0C5FFA8CFCE6
:101D20000EF101070EF1400EEE440EF820CCB4FB8C
:101D3000F5FCAC4214D31F2F12D8BE466446B4FB48
:101D4000F5FC05FB1C4C5FFA8CFCBCF1090FDCD8E0
:101D50000CF1300C5FFA8CFCE2E76127D9E72746EB
:101D600006961A9C0594199C049403959DF85C4072
:101D70000294019708AC0094FFF71EFF11B0F0BD6C
:101D80002DE9F04F95B009900A910B929846DDF835
:101D900078B0DDF87C90229D239F269E5BEA0902A5
:101DA00001D126F0100616F4806424D05BEA090203
:101DB0002FD000241FE016F0200F28D04123134419
:101DC000DBB20A3BDBB204F1010A04F150020DEB75
:101DD000020404F8203C2A463B465846494603F094
:101DE0004FF9AB4579EB070915D3BAF11F0F12D89C
:101DF0005446834689462A463B465846494603F0A0
:101E00003FF9D2B2092AD6D83032D3B2DBE7612308
:101E1000D5E74FF0000A0696259B0593249B049373
:101E200003959DF880300293CDF804A00CAB00938D
:101E300043460B9A0A990998FFF7BEFE15B0BDE814
:101E4000F08F0000000000002DE9F04F93B0044631
:101E50000D4617461E46DDE91CAB52465B46504612
:101E60005946FFF7F1FD002840F0F3804FF0FF32B4
:101E7000AD4B50465946FFF735FE002840F0E9804B
:101E80004FF0FF326FF4801350465946FFF7EEFDD6
:101E9000002840F0DE800022002350465946FFF71C
:101EA000E5FD002840F0E680CDE906AB209B13F469
:101EB00080630F9301D106231E93DDE906231046AC
:101EC0001946CDE90A01079B52EA030100F0DC80C4
:101ED000C3F30A50C3F31303904643F07F5949F408
:101EE0004019A0F2FF30FFF767FD7DA3D3E900237F
:101EF000FFF7EEFC7CA3D3E90023FFF7C1FCCDE99B
:101F000008010022894B40464946FFF7CDFC78A3E3
:101F1000D3E90023FFF7DCFC02460B46DDE90801AC
:101F2000FFF7AEFCFFF76CFD0890FFF745FD80461C
:101F3000894671A3D3E90023FFF7CAFC00227C4B3A
:101F4000FFF79EFCFFF75CFD0A906DA3D3E9002329
:101F500040464946FFF7BCFC804689460A98FFF791
:101F60002BFD69A3D3E90023FFF7B2FC02460B4621
:101F700040464946FFF798FC8046894602460B4694
:101F8000FFF7A6FCCDE90C010A9B03F2FF33002109
:101F90000022CDE90A121B050B9300230A93424647
:101FA0004B4640464946FFF76BFCCDE910014246DF
:101FB0004B4600204FF08041FFF776FC8046894673
:101FC00000225C4BDDE90C01FFF7A8FC00225A4B14
:101FD000FFF756FC02460B46DDE90C01FFF79EFCBD
:101FE0000022564BFFF74CFC02460B46DDE90C0184
:101FF000FFF794FC02460B4640464946FFF740FC7B
:1020000002460B46DDE91001FFF788FC00224C4B2D
:10201000FFF736FCDDE90A23FFF75AFC80468946C4
:10202000CDE90A89DDE90623FFF75CFD50B1089B85
:10203000013B08930022404B40464946FFF76EFCA7
:10204000CDE90A01089B6333C62B46D84FF004083C
:102050001EE0209B04931F9B03931E9B0293CDE9DC
:1020600000AB33463A462946204600F0FDF813B04F
:10207000BDE8F08F9FED267B8DED067BCDF818A097
:102080000BF10043079311E7002308934FF0040876
:10209000209B13F4006F5FD0DDE90A1213460B4357
:1020A00013D01DA3D3E90023DDE90601FFF706FDE8
:1020B000002800F0B4801AA3D3E90023DDE906016B
:1020C000FFF7D4FC002800F0AA801E9A089B9A42D1
:1020D00038DDD31A013B1E9336E04FF00508D7E7F1
:1020E000FB799F501344D33FB3C8608B288AC63F07
:1020F00061436F63A787D23F71A379094F930A4069
:102100001655B5BBB16B0240EF39FAFE422EE63FE1
:1021100000000000000000002D431CEBE2361A3FD7
:102120000000000080842E41FFFFEF7F0000F83F99
:102130000000E03F00002C40000024400000184058
:102140000000F03F00231E93209B43F48063209304
:102150004FF00008CDF820801F9B984569D2A3EB73
:102160000809209B13F002030C9304D0B8F1000F70
:1021700001D04FF00009089B3BB1DDE90A23DDE9FE
:102180000601FFF7CBFBCDE90601002200235046F4
:102190005946FFF76BFC00284ED1209B23F40063C7
:1021A0000493CDF80C901E9B02939DED067B8DED64
:1021B000007B33463A462946204600F055F8B8F1F0
:1021C000000F3FF454AF209B13F0200F3CD04FF092
:1021D000450C00F101093346024629466046A047F6
:1021E000089981EAE172A2EBE1720523059308F1F7
:1021F000FF330493002303930A230293CB0F01932D
:10220000009233464A4629462046FFF76FFD0C9B55
:10221000002B3FF42CAF0246DDF87C901EE01E9BA5
:10222000002B99D00F9B002B96D01E9B013B1E9339
:1022300092E74FF0000994E7DDE90601024601F15B
:102240000043CDE90623A8E74FF0650CC1E702F192
:102250000108334629462020A0474246D31B4B4560
:10226000F5D3104603E700BF2DE9F04F2DED028BAB
:1022700095B007900A9192469B46DDE92089229D00
:1022800042464B4640464946FFF7DEFB002835D123
:102290004FF0FF326FF4801340464946FFF7E6FBEC
:1022A00000283AD14FF0FF32B14B40464946FFF784
:1022B00019FC002840D1AAA3D3E90023404649468F
:1022C000FFF710FC00284DD1A7A3D3E90023404617
:1022D0004946FFF7CBFB002844D1002200234046AB
:1022E0004946FFF7C3FB00284AD100230B93249BE8
:1022F00013F4806F00F0B580002454E0249B039316
:10230000239B0293032301939A4B00935B4652460F
:102310000A990798FFF711FC1BE1249B0393239B69
:10232000029304230193944B00935B4652460A990F
:102330000798FFF702FC0CE1249B13F0040F0ED06A
:102340008E4B0422249903912399029101920093C8
:102350005B4652460A990798FFF7EFFBF9E0884B76
:102360000322EFE7249B0493239B03930295CDE97B
:1023700000895B4652460A990798FFF765FDE8E039
:1023800042464B4600200021FFF78EFA80468946E0
:1023900001230B93ABE704F150036B44302203F8A5
:1023A000202C013D01341F2C01D8092DF3D84046C3
:1023B0004946FFF725FB0646FFF7FEFA02460B46A5
:1023C00040464946FFF770FA6E4B03EBC50393EDA9
:1023D000008B53EC182BFFF77BFA02460B46CDE936
:1023E0000823FFF71FFB0746FFF7F8FA02460B46E4
:1023F000DDE90801FFF758FA02460B46CDE908234C
:102400000022614BFFF76EFB68B301373846FFF7D8
:10241000E5FA02460B4651EC180BFFF73BFB08B1FF
:10242000013600276DBB3046FFF7C6FA02460B4661
:1024300040464946FFF738FA074688460022524B85
:10244000FFF714FB00284CD100224F4B3846414681
:10245000FFF748FB002844D116F0010F41D00136A8
:102460003FE0062548E70022474BDDE90801FFF77A
:10247000FDFA0028D6D117B117F0010FD2D00137DD
:10248000D0E71F2C17D8013D404BA3FB0723DB08E7
:10249000194603EB8303A7EB4303621C303304F1BB
:1024A00050000DEB000404F8203C092F02D90F4620
:1024B0001446E6E714461F2C0AD86B1E45B104F1FA
:1024C00050026A44302102F8201C1D460134F2E714
:1024D0001F2C06D804F150036B442E2203F8202C45
:1024E00001341F2C17D82A4A82FB0632F317C3EB9C
:1024F000A2031A4603EB8303A6EB4303611C3033AC
:1025000004F150000DEB000404F8203C16460AB11B
:102510000C46E6E70C46249B03F00303012B39D05D
:102520001F2C09D80B9B002B51D004F150036B4496
:102530002D2203F8202C0134249B0393239B029328
:1025400001940CAB00935B4652460A990798FFF73B
:10255000F4FA15B0BDEC028BBDE8F08FAFF300804C
:102560000000000065CDCD410000000065CDCDC16B
:10257000FFFFEF7F985600109C5600108C560010FD
:1025800094560010485B00100000E03FCDCCCCCC4E
:1025900067666666239BB3B10B9B1BB9249B13F044
:1025A0000C0F12D0239B013B2393194606E004F144
:1025B00050036B44302203F8202C01348C42AFD2FC
:1025C0001F2CF4D9ACE72399F8E72399F6E7249B6D
:1025D00013F0040F07D004F150036B442B2203F8CF
:1025E000202C0134A8E7249B13F0080FA4D004F199
:1025F00050036B44202203F8202C01349CE700BFD9
:102600002DE9F04F8FB0804617460D93894600297B
:1026100000F04F83002508E06C1C3B462A464946E3
:10262000C0470D9B01330D9325460D9B187800285C
:1026300000F042832528EFD101330D9300261FE0DF
:1026400046F0010601320D92012318E046F0020621
:1026500001320D92012312E046F0040601320D9280
:1026600001230CE046F0080601320D92012306E03A
:1026700046F0100601320D92012300E000234BB317
:102680000D9A1378203B102BF8D801A151F823F0B4
:10269000652600107D2600107D2600107126001092
:1026A0007D2600107D2600107D2600107D2600105E
:1026B0007D2600107D2600107D2600105926001072
:1026C0007D2600104D2600107D2600107D2600106E
:1026D000412600100A930D9B1A78A2F13003DBB259
:1026E000092B18D92A2A1BD00A9B0B930D9B1A7809
:1026F0002E2A25D00D9A1378683B122B5CD8DFE880
:1027000003F0495BAC5B3B5B5B5B5B5B5B5B575BC1
:102710005B5B5B5BB1000DA8FFF7FCF90B90E5E795
:10272000189B1A1D18921B68002B04DB0B930D9B42
:1027300001330D93DAE746F002065B420B93F6E7AE
:1027400046F480665A1C0D925A78A2F13003DBB22F
:10275000092B0CD92A2ACDD1189B1A1D18921C6856
:1027600024EAE4730A930D9B01330D93C2E70DA88D
:10277000FFF7D0F90A90BDE746F48071531C0D9322
:1027800053786C2B01D00E4616E046F440760232A8
:102790000D9211E046F08001531C0D935378682B85
:1027A00001D00E4608E046F0C00602320D9203E06A
:1027B00046F4807601320D920D9B1878672856D822
:1027C0002528C0F06C82A0F12503422B00F267821D
:1027D000DFE813F05A0265026502650265026502D0
:1027E00065026502650265026502650265026502B1
:1027F00065026502650265026502650265026502A1
:102800006502650265026502650265026502650290
:10281000650265028801680188016502650265023A
:102820006502650265026502650265026502650270
:102830006502650265026502650271006502650256
:102840006502650265026502650265026502710046
:10285000AF01710088016801880146F400760132F9
:102860000D92A9E746F4807601320D92A4E778280C
:1028700000F215826928C0F01282A0F16902D2B27A
:102880000123934049F24102134214D113F0800F07
:1028900040F0DF8113F4806F00F00182189B1A1D55
:1028A0001892D3F800A00A9B002B40F090814FF0C3
:1028B000FF32534674E16F283DD005D858283CD0EC
:1028C000622803D1022304E0782838D026F01006CD
:1028D0000A23582835D0692803D0642801D026F06F
:1028E0000C0616F4806F01D026F0010669282BD063
:1028F000642829D016F4007F40F0968016F4807F7B
:1029000040F0AE8016F0400F00F0BF80189A111D05
:102910001891127805960B9904910A9903910293E4
:102920000023019300923B462A4649464046FFF762
:10293000DDF9054629E00823CBE71023C9E710237A
:10294000C7E746F02006C6E716F4007F21D116F44B
:10295000807F42D116F0400F58D0189A111D18915F
:10296000127882EAE271A1EBE27105960B9804906D
:102970000A9803900293D20F019200913B462A4697
:1029800049464046FFF7B2F905460D9B01330D93CA
:102990004BE6189A073222F0070202F1080118915B
:1029A000516812680846002913DB08960B9C0794AF
:1029B0000A9C0694049300230593C90F0291009288
:1029C00001903B462A4649464046FFF7D9F905465D
:1029D000DBE7524261EB4100E7E7189A111D1891BD
:1029E000126882EAE271A1EBE27105960B980490FD
:1029F0000A9803900293D20F019200913B462A4617
:102A000049464046FFF772F90546BEE716F0800FCB
:102A100005D0189A111D1891B2F90020A1E7189A53
:102A2000111D189112689CE7189A073222F00702CC
:102A300002F10801189108960B9907910A990691DD
:102A40000021049305910291D2E90023CDE90023EE
:102A50003B462A4649464046FFF792F9054694E729
:102A6000189A111D189105960B9904910A990391D2
:102A7000029300230193136800933B462A4649467C
:102A80004046FFF733F905467FE716F0800F04D084
:102A9000189A111D189112883CE7189A111D189167
:102AA000126837E746281AD0189B073323F007032C
:102AB00003F10802189204960B9A03920A9A029262
:102AC000D3E90023CDE900233B462A464946404648
:102AD000FFF7CAFB05460D9B01330D93A5E546F0B4
:102AE0002006E1E7672801D0472801D146F40066B7
:102AF000452801D0472801D146F02006189B07330E
:102B000023F0070303F10802189204960B9A03922C
:102B10000A9A0292D3E90023CDE900233B462A46D4
:102B200049464046FFF790F905460D9B01330D934A
:102B30007BE516F002061CD001241898031D18939B
:102B400005F1010A3B462A4649460078C047AEB91E
:102B50000D9B01330D93554667E5551C3B46494691
:102B60002020C04723462A465C1C9A45F5D81546C6
:102B7000E3E70123DDF82CA02A46F5E75246DDF80D
:102B80002CA006E0561C3B4649462020C0472C4658
:102B90003246651CA245F5D89246D9E701330A466C
:102BA000197811B1511E002AF8D1A3EB0A0316F4CB
:102BB000806B03D00A9A934228BF134616F0020492
:102BC00007D00C940A9E2A465D469B4623E00A9A4B
:102BD0006FE6CDF830B02A4625460B9C07E002F19F
:102BE000010B3B4649462020C04733465A465E1CEF
:102BF0009C42F4D8DDF830B02C4633460C940A9E43
:102C00005D469B4607E01E460AF1010A541C3B46FE
:102C10004946C04722469AF8000020B1002DF3D063
:102C2000731E002EEFD10C9C15465B461CB90D9B04
:102C300001330D93F9E40B9E06E0551C3B464946D3
:102C40002020C04723462A465C1C9E42F5D81546E4
:102C5000EDE746F02106189B1A1D18921B68059691
:102C6000082204920A9A03921022029200220192F0
:102C700000933B462A4649464046FFF737F805464B
:102C80000D9B01330D93D0E46C1C3B462A4649460C
:102C90002520C0470D9B01330D932546C5E46C1CD0
:102CA0003B462A464946C0470D9B01330D932546B6
:102CB000BBE4DFF82080ADE4BD4208D37A1E3B467A
:102CC00049460020C04728460FB0BDE8F08F2A468D
:102CD000F5E700BF051B001000B585B00290039119
:102CE000009313464FF0FF3202A90348FFF788FC18
:102CF00005B05DF804FB00BF071B001000BEFDE738
:102D000008B5FFF7FBFF000000B583B08C461946FD
:102D10005AB11446064B0194009363460246054897
:102D200000F056F90120FFF7E9FF034B1C46F2E7DC
:102D3000A4560010B4560010B057001010B5EFF3B1
:102D40000583DBB203B100BEFEF77CFC044C02E05D
:102D500054F8043B9847034B9C42F9D310BD00BF85
:102D6000E8500010EC50001008B5034608461B68F8
:102D70001146984708BD0000F8B507460D461646AF
:102D8000437D13B1002420460CE003681146284619
:102D900098472EE03B7D10E03B680221154898479C
:102DA000601C0134B44214DA002CF3DD2B1913F843
:102DB000013C0D2B14BF002301232A5D0A2AF0D108
:102DC000002BEED1A042E7DA3B68211A284498474D
:102DD000E2E7B04203DA3B68311A28449847002EF4
:102DE00007DD354415F8013C0D2B14BF00230123EA
:102DF0003B75F8BD985B001038B50368BBB105465C
:102E00000B4B1C6806E0294651F8042B2046FFF7BF
:102E1000B3FF24694CB12368002BFAD0054B1B6823
:102E2000002BF0D0A342F4D1EDE700232B6038BD96
:102E30005C0900206009002038B505460C460B6887
:102E4000802B05D023685A1C22601C44257138BD94
:102E50000846FFF7D1FFF5E708B5FEF7DBF9074AAB
:102E6000821841F10003002B03DB054802F010F942
:102E700008BD4FF0FF326FF00043F6E740420F000D
:102E80006807002008B5024802F0FEF808BD00BF40
:102E9000680700202DE9F04383B006460D469046B2
:102EA0001C46FFF7D9FF8146B5F1FF3F04D044B17E
:102EB000174F184B1C6807E0304602F0AFF8054684
:102EC000F5E7154FF5E72469BCB12368002BFAD06C
:102ED000124B1B680BB1A342F5D12A46314620465E
:102EE000B847B8F1000FEED00A238DF80730012261
:102EF0000DF107012046B847E5E7B9F1000F03D10E
:102F0000284603B0BDE8F083FFF7BCFFF8E700BF39
:102F1000792D00105C090020692D00106009002047
:102F2000094A136802E003F110021B6943B11368F8
:102F30008342F8D131B903691360002303617047FC
:102F400001B11060704700BF5C09002010B5054B4F
:102F50001C6800E0246924B16368002BFAD098470C
:102F6000F8E710BD5C09002008B500F04FF901201A
:102F700008BD38B5054602F051F8044601231A464B
:102F800001462846FFF786FFFFF7E0FF204638BDE1
:102F9000F0B5A3B004460E46FFF75EFF05460023DA
:102FA000019301AF3346224639460848FFF794FEA5
:102FB00004463846FFF720FFFFF7C8FF15B9204643
:102FC00023B0F0BDFFF75EFFF9E700BF392E001018
:102FD0000FB400B583B004A951F8040B0191FFF7B9
:102FE000D7FF03B05DF804EB04B0704782B08C46A5
:102FF000184B984214BF00230123174A32F91330AB
:103000008B4205D08DF807C000210DF107021CE0AE
:103010000D238DF8073000210DF107020029F1D1B1
:10302000836913F0200FFBD1134613F8012B0260C4
:1030300001311A46F2E7836913F0200FFBD11346E2
:1030400013F8012B026001311A460029F3D002B0B7
:10305000704700BF00800740C011002010B483B04B
:1030600000210DF1070209E0836913F0100FFBD175
:103070000468134603F8014B01311A460029F3D0C6
:103080009DF8070003B05DF8044B704770B5064625
:103090000D46002405E0315D034B1868FFF7A6FFDD
:1030A0000134AC42F7DB70BDC4110020F8B507460F
:1030B0000E46002404E0651CFFF7D0FF38552C466F
:1030C000B44205DA0C4B1868836913F0100FF2D084
:1030D0000A4B1B684BB1084B1B6850229A635A6B12
:1030E00002F0380203F581535A610CB12046F8BD55
:1030F0006FF00204FAE700BFC41100202409002089
:1031000008B5054B1B6833B1044A1268002191636E
:10311000034A1068984708BD24090020C411002004
:1031200028090020034B1A68936913F0080FFBD19C
:10313000704700BFC411002038B51B4B1B681B4AE9
:10314000934205D02124E0B1194B1B6813B138BD5F
:103150002224F8E7164B1860164B196016492046D2
:10316000FDF742FA01212046FDF72CFA0E4B1B68B1
:1031700050229A635A6B02F0380203F581535A6168
:10318000E5E70B4A1268002AE1D000259D63294635
:103190002046FDF717FA08492046FDF755FA044B7B
:1031A0001D60044B1D60D2E7C41100200080074061
:1031B00024090020280900200131001038B50D46EF
:1031C0001C46104B1860101E05DB10F0020F15D0C6
:1031D0000B21FDF785F8002C06DB14F0020F0FD051
:1031E0000B212046FDF77CF82946064B1868FEF7B0
:1031F000ADF801210448FFF793FE38BD0221E8E74E
:103200000221EEE7C41100201407002008B5074B87
:103210001B78074B1B78074B1B78012300224FF4C8
:10322000E1310548FFF7CAFF08BD00BF385C001058
:10323000345C0010305C001000000740074B9842DF
:103240000AD0132301229A40054B1A60054B9B6854
:1032500032EA0303FAD170471223F3E70000084073
:10326000003002400000024070B505460C460620C2
:10327000FEF700F9AE465EF8046F06F002060EF5A2
:10328000405202231360FE2B09D81A02A2FB04212C
:1032900090424FF000028A4104D30233F3E74FF427
:1032A000807101E04FF48071012909D901F1FF3CDF
:1032B00003FB0CF2B0FBF2F2A24201D86146F3E745
:1032C0002B614C1E2A6882EA042202F47F4205F533
:1032D00080552A600EF5005ECEF8006001FB03F316
:1032E000B0FBF3F070BD000038B504460D46164B38
:1032F000984226D0132201239340144A136020469B
:10330000FFF79CFF29462046FFF7AEFF234653F800
:10331000041F01F0020103F54052022515602268E6
:1033200082F0070202F0CF0204F5805CCCF80020A6
:1033300003F50053196004F50054032262621D6016
:1033400038BD1222D7E700BF00000840002002402D
:10335000072802D94FF0FF30704770B5054684004A
:103360000134E40004F580561021304601F060F984
:10337000304601F097F90028FAD1FF2104F52050DA
:1033800001F056F90123AB40DB439BB20A490A889E
:103390001A400A80094A11880B4013800023084A0A
:1033A00022F81530074A535504F5405001F07AF9D8
:1033B0000028F9D1012070BDCA110020CC110020D5
:1033C000B0110020A8110020072800F208812DE983
:1033D000F04184B004460E4617461D4601F00F0327
:1033E000012B23D05AB2002A00F0FC800E2B00F2F1
:1033F000FC80022BC0F0FC80012202FA03F344F6A9
:103400008C42134228D113F4005F40F0AB8013F4D8
:10341000007F08D0102269467E4801F0BBF94FF0CA
:10342000000C634695E06FF0040084E004226946D6
:10343000794801F0AFF900231A4608E003F11001C2
:10344000694411F8101C0A4492B20133DBB2032B19
:10345000F4D9002A00F0CF8015F0040F40F0D1809D
:10346000A5B10D2E12D80123B34042F2022213421D
:1034700040F0A98040F60802134240F0C58013F0E6
:10348000800F03D015F0030F40F0C1802046FFF7F6
:103490005FFF4FEA840808F1010825F00F014FEAA9
:1034A000C8083143404601F0C3F805F0030108F5B0
:1034B000A23001F0BDF84FB9584A17887B1C9BB267
:1034C00013804FF6F072934200F0848008F58A363C
:1034D000390A304601F0ACF8F9B206F5807001F017
:1034E000A7F808F580560121304601F0A1F83046D2
:1034F00001F0D8F80028FAD10123A340DB439BB2A6
:1035000047490A881A400A8005F00105A5402A4368
:103510000A80444A11880B401380434B002223F851
:103520001420424B08221A5508F5405001F0BAF811
:103530000028F9D060B204B0BDE8F0810CF11002AF
:103540006A4412F8102C13449BB20CF1010C5FFA80
:103550008CFCBCF10F0FF1D9002B7FF47DAF6FF025
:103560000B00E8E7042269462B4801F013F9002319
:103570001A4608E003F11001694411F8101C0A44CE
:1035800092B20133DBB2032BF4D9BAB310226946ED
:10359000204801F0FFF84FF0000C63460AE00CF100
:1035A00010026A4412F8102C13449BB20CF1010C67
:1035B0005FFA8CFCBCF10F0FF1D9002B7FF44CAFFC
:1035C0006FF00B00B7E715F0900F3FF45FAF6FF0AF
:1035D0000500B0E7114B4FF440421A8076E74FF0F8
:1035E000FF3070476FF00400A5E76FF00400A2E71A
:1035F0006FF004009FE76FF00B009CE76FF00B008B
:1036000099E76FF0050096E76FF0050093E76FF01C
:10361000050090E700404100003841002C070020E1
:10362000CA110020CC110020B0110020A8110020E8
:1036300007282AD870B5054684000134E00001F05F
:1036400031F800F00300012822D1E40004F54056CF
:10365000304601F027F813281DD104F580540221CB
:10366000204600F0E5FF204601F01CF80028FAD1C2
:10367000304601F017F8142801D1012070BD28460A
:10368000FFF766FE6FF00300F8E74FF0FF3070477A
:103690006FF00400F2E76FF00200EFE707283FD871
:1036A000F8B5054684000134E00000F0FBFF00F0AF
:1036B0000300012837D1E40004F54056304600F0FD
:1036C000F1FF08B90120F8BD04F5805708213846FC
:1036D00000F0AEFF384600F0E5FF0028FAD10123E4
:1036E000AB40DB431BB2124A11880B401380114BD5
:1036F0001B882B4113F0010F18D1304600F0D2FF88
:1037000060B104F5005000F0CDFF10F0080FF4D0C8
:103710002846FFF71DFE6FF00C00D4E70120D2E72A
:103720004FF0FF3070476FF00400CCE70020CAE78D
:10373000CC110020CA1100202DE9F8430546894626
:1037400014464FEA800808F101084FEAC80808F556
:10375000003000F0A7FF8702BFB2A7420CD3274674
:103760000AE018B16FF00600BDE8F8832846FFF7BD
:10377000EFFDF7E7BC4216D2284601F049F80446AF
:1037800008F54056304600F08DFF172801D01C2860
:10379000E7D1294B1B882B4113F0010FEAD0BC4223
:1037A000E8D20020E0E73A464946284601F060F8B2
:1037B000224B1B882B4113F0010F18D108F58058BC
:1037C0002021404600F034FF404600F06BFF002807
:1037D000FAD10123AB40194A11880B4313803846B4
:1037E000C2E7154B1B882B4113F0010F21D108F5BF
:1037F0000054204600F056FF10F0100F13D1304651
:1038000000F050FF1728ECD01C28EAD028B1204641
:1038100000F048FF10F0080F02D02846FFF798FD8F
:103820006FF00600A0E7102108F5205000F000FF1F
:10383000C4E7002098E700BFCA110020CC11002087
:1038400007285BD82DE9F8430546884614468600CC
:103850000136F00000F026FF00F00F00012850D1E3
:10386000002C51D0F60006F5083000F01BFF87024F
:10387000BFB2BC420ED827460CE02846FFF768FDD1
:103880006FF0060038E01CBB224B1B882B4113F065
:10389000010F3CD1284600F0D3FF044606F5405006
:1038A00000F000FF1728EED01C28E6D184B9284686
:1038B00000F0AEFF814606F5003000F0F3FEB9EBF4
:1038C000802FE0D12846FFF743FD6FF0060013E09C
:1038D000BC4200D33C4622464146284600F0F2FF57
:1038E00006F580564021304600F0A2FE304600F03A
:1038F000D9FE0028FAD12046BDE8F8834FF0FF300A
:1039000070476FF00400F7E76FF00D00F4E7002058
:10391000F2E700BFCA110020072800F2858010B529
:103920000B4614461178092B00F28180DFE803F082
:10393000051D25303B466572505B01290CD00029DE
:1039400078D1012202FA00F3DB431BB23F49088819
:1039500003400B8010460FE0012202FA00F33B49BE
:10396000088803430B80104606E0384B1B88034150
:1039700003F001032370012010BD80000130C0005E
:1039800000F5003000F08EFE800220800120F3E779
:1039900080000130C00000F5083000F083FE800296
:1039A00020800120E8E71F2947D880000130C000AF
:1039B00000F5205000F03CFE0120DDE780000130E2
:1039C000C00000F5005000F06DFE20700120D3E72C
:1039D0001F2935D880000130C00000F5105000F0DC
:1039E00027FE0120C8E780000130C00000F510501C
:1039F00000F058FE20700120BEE701F00303012B08
:103A000021D080000130C00000F5806000F010FE81
:103A10000120B1E780000130C00000F5806000F0B7
:103A200041FE20700120A7E74FF0FF3070476FF094
:103A30000900A1E76FF009009EE76FF009009BE71E
:103A40006FF0090098E76FF0090095E7CA110020B0
:103A5000072800F20181F8B5044615460E2900F248
:103A6000FE80DFE811F00F002D0037004100530009
:103A70007900FC008B009C00A100A600B000EF00C4
:103A8000C300DD0086000136F600304600F00AFE75
:103A9000074606F5A23000F005FE7B4B1B8823414C
:103AA000DB0003F0080327F00F07384318432870A2
:103AB000304600F0F7FD00F0F00028700120F8BD5E
:103AC00080000130C00000F5843000F0EBFD28706C
:103AD0000120F4E780000130C00000F5823000F0E2
:103AE000E1FD28700120EAE784000134E40004F5D8
:103AF0008834204600F0D6FD0602B6B204F5807088
:103B000000F0D0FD06442E800120D8E78400013467
:103B1000E00000F0C7FD00F00300012840F0A280A3
:103B2000E40004F5445000F0BDFD10F0040F09D08E
:103B30001022294604F5983000F02CFE10232B7437
:103B40000120BCE70422294604F5903000F022FE53
:103B500004232B740120B2E784000134E40004F54F
:103B6000A034204600F09EFD0602B6B204F5807037
:103B700000F098FD06442E800120A0E78400013467
:103B8000E00000F08FFD00F0030001286DD1E0009F
:103B900000F5C43000F086FD288001208FE700F09A
:103BA00037FE288001208AE700F04AFE28800120A5
:103BB00085E780000130C00000F5405000F072FD44
:103BC000287001207BE784000134E00000F06AFDEA
:103BD00000F0030001284BD1E00000F5445000F054
:103BE00061FD00F007002870012068E786000136BB
:103BF000F600304600F056FD00283CD0304600F07C
:103C000051FD10F0010F05D1204B33F814302B80FB
:103C1000012054E7204600F013FE288001204EE7E3
:103C200086000136F600304600F03CFD30B33046E9
:103C300000F038FD10F0010F23D1154B1B5D2B70E8
:103C400001203CE780000130C00000F02BFD00F0B7
:103C50000F002870012032E74FF0FF3070476FF0FF
:103C600001002CE76FF0040029E76FF0040026E75D
:103C70006FF0040023E76FF0060020E76FF0060006
:103C80001DE76FF004001AE7CA110020B0110020F0
:103C9000A811002070477047704770470078704740
:103CA00001707047002070477047000070B50446EF
:103CB0000E46002506E0054BDB69984704F8010B2A
:103CC0000135ADB2B542F6D370BD00BF300700205C
:103CD00070B504460E46002506E0054B1B6A14F835
:103CE000010B98470135ADB2B542F6D370BD00BFA8
:103CF0003007002020B119B1044AD060116170472B
:103D0000024B034ADA60034A1A6170473007002009
:103D1000953C0010973C001020B119B1044A506145
:103D200091617047024B034A5A61034A9A61704796
:103D300030070020993C00109B3C001010B4124C3E
:103D4000B4F800C01CF4007FF9D068B10E4CE061FB
:103D500071B10D4801627AB10B494A6283B10A4AD6
:103D600093625DF8044B70472046084CC461EFE74E
:103D7000054907480862EEE7034A06495162EDE744
:103D8000014B054A9A62ECE730070020A53C001081
:103D9000A93C0010AD3C0010D13C00102DE9F04FC3
:103DA00099B04FF4001000F07DFC0190CE213F4807
:103DB00000F03EFC0DF14C0B062259463C4800F049
:103DC000E9FC0DF15C0A042251463A4800F0E2FC9D
:103DD0000DF1580904224946374800F0DBFC0DF18B
:103DE000540804224146354800F0D4FC0FAF10229D
:103DF0003946334800F0CEFC0BAE10223146314834
:103E000000F0C8FC07AD102229462F4800F0C2FC84
:103E100003AC102221462D4800F0BCFC00212C48A8
:103E200000F006FC2A4800F03DFC3A21294800F049
:103E3000FFFB062259461E4800F068FC042251464A
:103E40001C4800F063FC042249461B4800F05EFC5D
:103E500004224146194800F059FC102239461848FE
:103E600000F054FC10223146164800F04FFC10229E
:103E70002946154800F04AFC10222146134800F05C
:103E800045FC019B13F0800F06D1019B13F0400FFE
:103E900007D119B0BDE8F08FFF21044800F0C8FB3E
:103EA000F3E7C5210B4800F0C3FBF2E700F4410043
:103EB0000020410000304100003441000038410042
:103EC000007041000060410000404100005041008E
:103ED0000004200000F5410070B505460E46FFF7CE
:103EE0005DFFCDB100221346072B07DCE95C0A44D5
:103EF00052B2102A2FDC01335BB2F5E7002409E04F
:103F0000A0000130C000295D00F5003000F090FBFA
:103F1000013464B2072CF3DD5EB100221346072B97
:103F200009DCF15C0A4452B2102A17DC01335BB29F
:103F3000F5E700200EE0002409E0A0000130C000F9
:103F4000315D00F5083000F073FB013464B2072CDA
:103F5000F3DD002070BD4FF0FF30FBE74FF0FF3086
:103F6000F8E7000070B5C0F30725C0F30746C1B2FB
:103F70000D4800F05DFB002400E00134072C0DDC4F
:103F800045FA04F313F0010FF7D0A0000130C00090
:103F9000FF2100F5205000F04BFBEEE731460348CF
:103FA00000F046FB70BD00BF000821000028210082
:103FB00010B54FF4041000F075FB0446054800F0FE
:103FC00071FB04EB0024044800F06CFB44EA004061
:103FD00010BD00BF000121000002210038B50446D9
:103FE000C0F30725C1B2064800F022FB2946054868
:103FF00000F01EFBC4F30741034800F019FB38BD75
:1040000000042100001421000024210010B50748FD
:1040100000F048FB0446064800F044FB04EB002493
:10402000044800F03FFB44EA004010BD00042100BA
:10403000001421000024210008B54FF4401000F0C6
:1040400031FB00F0010008BD08B5054800F02AFB6F
:1040500010F0200F01D1002008BD0120FCE700BFB7
:10406000001D300070B50A4E304600F01BFB40F0DA
:104070000104E4B2074D5321284600F0D9FA214645
:10408000304600F0D5FAFF21284600F0D1FA70BD85
:10409000001D300000F6410038B54378022B14D0E3
:1040A0000446134D284600F0FDFA00F0F7012846BB
:1040B00000F0BEFA6378012B18D0A378A3B10421D5
:1040C000E3786BB941F001010AE0094C204600F0A9
:1040D000E9FA40F00801C9B2204600F0A9FA00212F
:1040E000044800F0A5FA38BD0621E9E70021F7E70A
:1040F000001D3000001C300038B505464FF440105C
:1041000000F0D0FA04460C4800F0CCFA10F0080F8A
:104110000CD002236B70C4F3001383F00103AB7067
:10412000C4F3C00484F00104EC7038BDC4F3401340
:1041300083F001036B70EEE7001D300010B50446FC
:10414000074800F0AFFA012C05D000F0DF01044869
:1041500000F06EFA10BD40F02001C9B2F7E700BFD1
:10416000001D300030B583B00C460D78002300935D
:10417000019317280DD8DFE800F0102B464E525E51
:104180005963686D780C0C84940C0CA2A6ABC5B076
:10419000B5BD4FF0FF3003B030BD15F0040F07D1AF
:1041A00015F0020F09D115F0010F0BD10020F2E735
:1041B000FF21584800F03CFAF2E7C521564800F0CC
:1041C00037FAF0E7FF21554800F032FA0020E2E725
:1041D00015F0040F07D115F0020F09D115F0010FEA
:1041E0000BD10020D7E7CE214A4800F021FAF2E7B0
:1041F0003A21494800F01CFAF0E75321474800F003
:1042000017FA0020C7E74FF4001000F04BFA4009FE
:1042100020700020BFE7FFF7C1FD0020BBE7009141
:10422000083101912046FFF757FEB4E70868FFF711
:1042300099FE0020AFE7FFF7BBFE20600020AAE751
:104240000868FFF7CBFE0020A5E7FFF7DFFE206040
:104250000020A0E70988090A314800F0E9F921782F
:10426000304800F0E5F9002095E72D4800F01AFAF3
:104270000502ADB22B4800F015FA05442580002058
:1042800089E7294B9A780A70DA784A701A798A7025
:104290005A79CA709A790A71DB794B71002088715A
:1042A00079E74FF4007000F0FDF90502ADB24FF46C
:1042B000407000F0F7F90544258000206BE7FFF718
:1042C000D1FE002067E70846FFF7E6FE002062E720
:1042D0000846FFF711FF00205DE72846FFF72EFF95
:1042E000002058E7FFF7B0FEC0B2FF280CD02070C6
:1042F000002050E7FFF7A0FEC0B2FF2807D02070D3
:10430000002048E7002046E74FF0FF3043E74FF03A
:10431000FF3040E700F4410000F5410000F64100A5
:1043200000C5410000C641003007002010B504461A
:1043300006220146234800F0E9F9042204F10E01A7
:10434000214800F0E3F9042204F10A011F4800F0BB
:10435000DDF90422A11D1E4800F0D8F9102204F155
:1043600042011C4800F0D2F9102204F132011A482F
:1043700000F0CCF9102204F11201184800F0C6F93F
:10438000102204F12201164800F0C0F90023032B8B
:1043900007D8E21892F85210124AD1540133DBB216
:1043A000F5E7002306E0E21892F856100E4AD154C1
:1043B0000133DBB20F2BF6D994F866200B4B1A7041
:1043C00010BD00BF0020410000304100003441001A
:1043D0000038410000704100006041000040410091
:1043E0000050410000090020F0080020CE110020FC
:1043F00010B5044606220146234800F0CBF90422FA
:1044000004F10E01214800F0C5F9042204F10A016B
:104410001F4800F0BFF90422A11D1E4800F0BAF9A0
:10442000102204F142011C4800F0B4F9102204F1FA
:1044300032011A4800F0AEF9102204F112011848B6
:1044400000F0A8F9102204F12201164800F0A2F9A8
:104450000023032B07D8144AD15CE21882F85210CB
:104460000133DBB2F5E7002306E0104AD15CE21825
:1044700082F856100133DBB20F2BF6D90C4B1B78A8
:1044800084F8663010BD00BF0020410000304100BC
:1044900000344100003841000070410000604100DC
:1044A000004041000050410000090020F0080020B9
:1044B000CE11002010B50446C1B2094800F0B8F88A
:1044C000C4F30721074800F0B3F8C4F307414FF4E1
:1044D000800000F0ADF8210E034800F0A9F810BDEF
:1044E00000084000000940000004400010B50848E2
:1044F00000F0D8F8074800F0D5F84FF4800000F03D
:10450000D1F80406044800F0CDF8204410BD00BFE7
:1045100000084000000940000004400010B50446B7
:1045200001780D4800F084F86188090A4FF484008E
:1045300000F07EF8A178094800F07AF8217908485F
:1045400000F076F8E188090A064800F071F8A179D0
:10455000054800F06DF810BD000442000001420063
:10456000000C4200000842000009420038B5054630
:104570000E4800F097F828704FF4840000F092F88D
:104580000402A4B20A4800F08DF804446C80094883
:1045900000F088F82871084800F084F80402A4B2FA
:1045A000064800F07FF80444EC8038BD0004420067
:1045B00000014200000C42000008420000094200D5
:1045C00010B50C4607282DD8DFE800F004090E11BD
:1045D000161B20260846FFF7A9FE00200BE0084620
:1045E000FFF706FF002006E00868FFF763FFFFF70C
:1045F0007DFF2060002010BD0846FFF78FFF0020E0
:10460000F9E70846FFF7B2FF0020F4E7097807480A
:1046100000F00EF80020EEE7044800F043F82070A8
:104620000020E8E74FF0FF30E5E700BF002C210055
:1046300010B582B0C0F307438DF80430C0F30723F0
:104640008DF805308DF806008DF80710144CE368DE
:104650009847636998479DF8063043F004038DF846
:104660000630A36A53B104210DEB010098470C4CAE
:10467000A36998472369984702B010BD236A9DF843
:1046800004009847236A9DF805009847236A9DF81F
:1046900006009847236A9DF807009847E7E700BFA0
:1046A0003007002030B583B0C0F307438DF80430E5
:1046B000C0F307238DF805308DF80600124CE3682F
:1046C000984763699847636A2BB1A36A1BB10321BA
:1046D00001A898470CE00C4C236A9DF80400984709
:1046E000236A9DF805009847236A9DF806009847BD
:1046F000054DEB6998470446AB6998472B69984785
:10470000204603B030BD00BF3007002070B582B036
:104710000E461546C0F307438DF80430C0F3072357
:104720008DF805308DF80600194CE36898476369E9
:1047300098479DF8063043F004038DF80630A36ACD
:1047400073B1032101A89847114B9B6A2946304653
:1047500098470F4CA36998472369984702B070BDEA
:10476000236A9DF804009847236A9DF8050098473E
:10477000236A9DF806009847002405E0044B1B6A55
:10478000305D98470134A4B2AC42F7D3E1E700BFF3
:104790003007002070B582B00D461446C0F30743C1
:1047A0008DF80430C0F307238DF805308DF806002E
:1047B000164EF368984773699847736A83B1B36A72
:1047C00073B1032101A89847104B5B6A2146284624
:1047D00098470E4CA36998472369984702B070BD6B
:1047E0000A4E336A9DF804009847336A9DF8050025
:1047F0009847336A9DF806009847002CE9D0034B90
:10480000DB69984728700134A4B2F6E7300700202E
:10481000F8B506460027B4000134E40004F501347D
:104820002046FFF73FFF0502ADB204F58070FFF7A9
:1048300039FF3B460544AFB2BB42ECD13846F8BD28
:10484000F8B506460027B4000134E40004F5093445
:104850002046FFF727FF0502ADB204F58070FFF791
:1048600021FF3B460544AFB2BB42ECD13846F8BD10
:104870002DE9F8438946174685006E1CF60006F5BB
:1048800003363046FFF70EFF0402A4B206F5807827
:104890004046FFF707FF0444A4B2A81CC0003A46F4
:1048A000494600EB0420FFF731FFE1198CB2C1F358
:1048B00007213046FFF7BCFEE1B24046FFF7B8FEE5
:1048C000BDE8F88302B970472DE9F8430F469046DA
:1048D0008400661CF60006F50A363046FFF7E2FE55
:1048E0000502ADB206F580794846FFF7DBFE0544C8
:1048F000ADB2E01CC0004246394600EB0520FFF790
:1049000049FF08EB05018CB2C1F307213046FFF7E0
:104910008FFEE1B24846FFF78BFEBDE8F883112316
:104920004FF0000242EC4030704711234FF001027B
:1049300042EC403070470000094B1A68EFF31081D9
:1049400072B6D2E8CFCF0120BCF1000FF9D1C2E896
:104950004C0FBCF1000FF4D1BFF35F8F596070476B
:1049600064110020044B19685B680022C1E88F2F96
:1049700083F31088704700BF6411002008B50A4611
:104980000146024800F08CFB08BD00BF0000084053
:1049900000B583B08DF8070001220DF1070103482F
:1049A00000F07EFB03B05DF804FB00BF0000084090
:1049B00008B502460B46FF21014800F06DFB08BD1B
:1049C0000000084000B583B000238DF807300123B4
:1049D0000DF10702FF21044800F05EFB9DF807007F
:1049E00003B05DF804FB00BF0000084038B5142098
:1049F000FBF792FC14244FF0010545EC44404FF0C6
:104A0000000343EC40406420FCF718FB45EC4040B9
:104A10006420FCF713FB38BD08B50D490D48FEF7BF
:104A200063FC01211220FBF75BFC01211320FBF743
:104A300057FC01211020FBF753FC1120FBF76CFC05
:104A400011234FF0010242EC443042EC403008BDEB
:104A5000005A62020000084008B50448FBF77CFFDA
:104A600003490448FFF746F908BD00BF6411002060
:104A7000654900103949001000B587B011234FF087
:104A8000010242EC403017491748FFF745F9174B30
:104A9000174A18491848FFF751F9184B0DF1040C43
:104AA0000FCB8CE80F0061460420FFF75BFBB0F1F1
:104AB000FF3F0CD00DF117011720FFF753FBB0F1AA
:104AC000FF3F08D09DF81730002BF3D006E00C48CC
:104AD000FEF74FFA02E00B48FEF74BFA07B05DF81D
:104AE00004FB00BF2B4900101F4900107D49001036
:104AF000B149001091490010C5490010D85B001061
:104B0000105700102857001010B50020FFF7CAFDFD
:104B100004024FF48070FFF7C5FD0444B4F5C24FA2
:104B200000D110BD0020FFF7BDFD04024FF48070DE
:104B3000FFF7B8FD21180248FEF74AFAFEE700BF6A
:104B40004457001084B000B583B00DF1100C8CE810
:104B50000F0002238DF807300DF107010120FFF748
:104B600001FB04A90020FFF72BFD03B05DF804EB67
:104B700004B0704738B50C4601461848FEF728FACD
:104B800021786378A078E27842EA002243EA0121A2
:104B90001348FEF71DFA21796379A079E279114D66
:104BA00042EA002243EA01212846FEF711FA217A5F
:104BB000637AA07AE27A42EA002243EA0121284697
:104BC000FEF706FA217B637BA07BE27B42EA0022B0
:104BD00043EA01210448FEF7FBF938BD7C57001079
:104BE0008C57001098570010A457001084B010B5CF
:104BF00086B008AC84E80F0004AC0023049305934E
:104C000008A90120FFF7DCFC21460D20FFF7AAFAD6
:104C10003448FEF7AEF921463348FEF7D9F99DF83E
:104C200023309DF824209DF82510029101920093D5
:104C30009DF822309DF821209DF820102B48FEF78A
:104C4000C7F99DF8293000939DF828309DF827205A
:104C50009DF826102648FEF7BBF99DF82D300093ED
:104C60009DF82C309DF82B209DF82A102148FEF746
:104C7000AFF99DF8313000939DF830309DF82F202A
:104C80009DF82E101C48FEF7A3F99DF8753000938F
:104C90009DF874309DF873209DF872101748FEF748
:104CA00097F90DF162011648FFF764FF0DF132012B
:104CB0001448FFF75FFF0DF142011348FFF75AFF59
:104CC0000DF152011148FFF755FF0DF17601104823
:104CD000FFF750FF0F48FEF74CF906B0BDE8104053
:104CE00004B07047F0500010B4570010D0570010B7
:104CF000005800101C58001038580010545800106C
:104D00007058001078580010805800108858001013
:104D10009058001098580010094B93F90030DBB2FE
:104D2000172B05D8074A22FA03F313F0010F02D11B
:104D3000034B02221A70024B93F90000704700BF28
:104D4000D0110020040880002DE9F04182B0044613
:104D50000E469046FFF7E0FF704B93F90030022BB0
:104D60001FD0172B20D06E4B1F680DF107020A21B0
:104D70002046FEF76DFE9DF907301C2B00F2C38024
:104D8000DFE803F09BC1C1C1C1C1C1C1C1C1C1C183
:104D9000C1C1C1C1C1C1C18EC1C1C115C1C1C1C1E2
:104DA0005C00604B1F68E0E75F4B1F68DDE70DF1BB
:104DB000060205212046FEF7AFFD9DF9063013F0EF
:104DC000010F2BD101AA09212046FEF741FEBDF8B3
:104DD0000430002B00F09C80B3F5006F03D94FF432
:104DE0000063ADF80430BDF8042031462046FEF7DC
:104DF00027FD051E40F38880ADF804500027BDF85C
:104E00000420BA4218D0D21B92B2F1192046FEF704
:104E100093FC051E0CDB2F44BFB2F0E701238DF895
:104E200003300DF1030204212046FEF775FDC9E7AA
:104E30002046FEF78DFA67E0012565E001AA092109
:104E40002046FEF705FEBDF8043023B3B3F5006F2E
:104E500003D94FF40063ADF80430BDF804203146A7
:104E60002046FEF7EDFC051E4EDDADF80450002790
:104E7000BDF80420BA420ED0D21B92B2F1192046DE
:104E8000FEF75AFC051E02DB2F44BFB2F0E72046B6
:104E9000FEF75EFA38E02046FEF700FC054633E0F8
:104EA0002046FEF7C5FB054601282DD13B4642466C
:104EB00021461E48FEF78CF826E0184B93F9003087
:104EC0000B2B16D0172B0CD0022B1AD101234246E4
:104ED00019462046FEF778FAC3B2A3421AD101253B
:104EE00012E00123424609212046FEF76DFAC3B2C3
:104EF000F3E7012342460D212046FEF765FAC3B2CF
:104F0000EBE70023E9E70125284602B0BDE8F08180
:104F10000125F9E74FF0FF35F6E700BFD01100207B
:104F20005C0700206407002060070020F85800108C
:104F3000844641EA000313F0030349D1403A23D3E6
:104F40000B6803604B6843608B688360CB68C36009
:104F50000B6903614B6943618B698361CB69C361F1
:104F60000B6A03624B6A43628B6A8362CB6AC362D9
:104F70000B6B03634B6B43638B6B8363CB6BC363C1
:104F800040304031403ADBD230320BD30B68036003
:104F90004B6843608B688360CB68C360103010310E
:104FA000103AF3D20C3205D351F8043B40F8043BDD
:104FB000043AF9D2043208D0D2071CBF11F8013BE1
:104FC00000F8013B01D30B8803806046704700BFA7
:104FD000082A13D38B07B1D010F00303AED0C3F16E
:104FE0000403D21ADB071CBF11F8013B00F8013B98
:104FF000A4D331F8023B20F8023B9FE7043AD9D30F
:10500000013A11F8013B00F8013BF9D20B7803702B
:105010004B7843708B7883706046704720F00301B3
:1050200010F00300C0F1000051F8043B00F1040C43
:105030004FEACC0C6FF000021CBF22FA0CF21343B3
:105040004FF0010C4CEA0C2C4CEA0C4CA3EB0C027C
:1050500022EA030212EACC1204BF51F8043B0430E6
:10506000F4D0C2F1000102EA0102B2FA82F2C2F106
:105070001F0200EBD2007047F8B500BF000000002F
:105080005FF800F01D0300205FF800F0210200200F
:105090005FF800F0ED0100205FF800F0D30200207F
:1050A0005FF800F079020020DD16001055160010A0
:1050B0008116001079170010BD160010F9150010A8
:1050C00001170010C5150010FD0800100917001089
:1050D0006911001041160010EF160010A116001003
:0C50E00059040010B1040010110200106F
:1050F0003D3D3D3D3D3D3D3D3D3D3D3D3D3D3D3DE0
:105100003D3D3D3D3D3D3D3D3D3D3D3D3D3D3D3DCF
:105110003D3D3D3D3D3D3D3D3D3D3D3D3D3D3D3DBF
:105120003D3D3D3D3D3D3D3D3D3D000031323A3050
:10513000373A3539000000004F6374203235203291
:1051400030323500436F6D70696C656420402025F6
:10515000732C2025730A0000206C6F6F70626163EE
:105160006B5F74637073206572726F72203A2025D2
:10517000640A000057495A4E455420494E546E0067
:10518000564255532073656E736500005573657202
:10519000204C454400000000565359532F33204102
:1051A0004443000057495A6E6574204C6F6F70621B
:1051B00061636B204578616D706C6520666F72204D
:1051C00057363130302D4556422D5069636F3200CD
:1051D0000A2A2A2A2050414E4943202A2A2A0A0014
:1051E0004E6F207370696E6C6F636B7320617265B4
:1051F00020617661696C61626C65000030783163B2
:10520000203D3D20282A696E7374293E3E31317558
:10521000000000002F686F6D652F6A6172656D6513
:105220006B672F2E7069636F2D73646B2F73646BC4
:105230002F322E322E302F7372632F7270325F63D3
:105240006F6D6D6F6E2F68617264776172655F69F3
:1052500072712F6972712E630000000064656C74B6
:1052600061203E3D202D32303438202626206465D2
:105270006C7461203C3D20323034362026262021BB
:105280002864656C7461202620312900212864651A
:105290006C7461203E3E2031317529006375727255
:1052A000656E74203D3D205F5F756E68616E646C55
:1052B00065645F757365725F697271207C7C2063C1
:1052C000757272656E74203D3D2068616E646C6518
:1052D0007200000021657863657074696F6E207CD0
:1052E0007C20657863657074696F6E203D3D206E2B
:1052F000756D202B20565441424C455F4649525310
:10530000545F49525100000066616C7365000000F3
:1053100069735F7368617265645F6972715F7261FE
:10532000775F68616E646C657228736C6F745F6818
:10533000616E646C65722900657863657074696F6D
:105340006E000000666F756E6400000031203D3D08
:10535000202875696E747074725F74296C2D3E73A9
:1053600070696E5F6C6F636B000000002F686F6D7B
:10537000652F6A6172656D656B672F2E7069636F4B
:105380002D73646B2F73646B2F322E322E302F737C
:1053900072632F636F6D6D6F6E2F7069636F5F73D4
:1053A000796E632F6D757465782E6300746F746108
:1053B0006C0000006D74782D3E636F72652E737003
:1053C000696E5F6C6F636B006C6F636B5F69735FBB
:1053D0006F776E65725F69645F76616C6964286D72
:1053E00074782D3E6F776E65722900006D74782D8C
:1053F0003E656E7465725F636F756E7400000000C9
:10540000706F6F6C2D3E74696D65725F616C617257
:105410006D5F6E756D203D3D2074696D65725F61D5
:105420006C61726D5F6E756D000000002F686F6DAE
:10543000652F6A6172656D656B672F2E7069636F8A
:105440002D73646B2F73646B2F322E322E302F73BB
:1054500072632F636F6D6D6F6E2F7069636F5F7412
:10546000696D652F74696D652E6300006465666102
:10547000756C745F616C61726D5F706F6F6C5F698A
:105480006E697469616C697A65642829000000009E
:10549000417474656D7074656420746F20736C65FD
:1054A000657020696E73696465206F6620616E2087
:1054B000657863657074696F6E2068616E646C6591
:1054C000723B2075736520627573795F77616974CB
:1054D00020696620796F75206D7573740000000077
:1054E000486172647761726520616C61726D20251C
:1054F0006420616C726561647920636C61696D65BB
:105500006400000076636F5F66726571203E3D2027
:105510005049434F5F504C4C5F56434F5F4D494E8F
:105520005F465245515F485A2026262076636F5FBA
:1055300066726571203C3D205049434F5F504C4C92
:105540005F56434F5F4D41585F465245515F485A41
:10555000000000002F686F6D652F6A6172656D65D0
:105560006B672F2E7069636F2D73646B2F73646B81
:105570002F322E322E302F7372632F7270325F6390
:105580006F6D6D6F6E2F68617264776172655F70A9
:105590006C6C2F706C6C2E63000000006662646996
:1055A00076203E3D203136202626206662646976CC
:1055B000203C3D203332300028706F73745F646983
:1055C0007631203E3D203120262620706F73745F97
:1055D00064697631203C3D2037292026262028701A
:1055E0006F73745F64697632203E3D203120262639
:1055F00020706F73745F64697632203C3D203729D8
:10560000000000007265665F66726571203C3D2097
:105610002876636F5F66726571202F20313629000E
:10562000416C6C206F7074696D697A6174696F6E1A
:105630002064697361626C65640000004465627592
:1056400067000000626F6F74325F773235713038F7
:1056500030000000322E322E312D646576656C6F7D
:10566000700000007069636F3200000070726F6A32
:105670005F73636433305F6D6574657200000000B2
:105680004F6374203137203230323500666E692B1B
:1056900000000000666E69006E616E00666E692D26
:1056A000000000002C2066756E6374696F6E3A20EE
:1056B00000000000617373657274696F6E202225AB
:1056C0007322206661696C65643A2066696C6520A6
:1056D000222573222C206C696E6520256425732594
:1056E000730A00005541525420737464696E0000BF
:1056F00055415254207374646F757400554152546F
:1057000020737464696E202F207374646F75740045
:1057100020573678303020696E697469616C697A17
:105720006564206661696C0020556E6B6E6F776EE4
:1057300020504859206C696E6B20737461747573C6
:10574000000000002041434345535320455252205E
:105750003A2056455253494F4E20213D203078364D
:105760003130302C20726561642076616C75652063
:105770003D203078253032780A0000002573202043
:105780002020202020203A2000000000253034581E
:105790003A253034580000003A253034583A253044
:1057A000345800003A253034583A253034580D0A20
:1057B00000000000202573206E6574776F726B20E7
:1057C000636F6E66696775726174696F6E0A0A004D
:1057D000204D41432020202020202020203A202539
:1057E0003032583A253032583A253032583A25303E
:1057F00032583A253032583A253032580A000000E3
:10580000204950202020202020202020203A202520
:10581000642E25642E25642E25640A0020537562AB
:105820006E6574204D61736B203A2025642E2564CB
:105830002E25642E25640A002047617465776179FE
:1058400020202020203A2025642E25642E25642E39
:1058500025640A0020444E532020202020202020B0
:10586000203A2025642E25642E25642E25640A0006
:105870002047573620000000204C4C4120000000FB
:1058800020475541200000002053554236000000BB
:1058900020444E53360000003D3D3D3D3D3D3D3DE5
:1058A0003D3D3D3D3D3D3D3D3D3D3D3D3D3D3D3D28
:1058B0003D3D3D3D3D3D3D3D3D3D3D3D3D3D3D3D18
:1058C0003D3D3D3D3D3D3D3D3D3D3D3D3D3D3D3D08
:1058D0003D3D0A0057357830302043484950205329
:1058E000454C45435400000057495A43484950200D
:1058F000524553455400000025643A4C6973746561
:105900006E2C2054435020736572766572206C6F44
:105910006F706261636B2C20706F7274205B256402
:105920005D2061732025730D0A0000004475616CD1
:10593000204950206D6F64650000000049507636A4
:10594000206D6F646500000049507634206D6F64EF
:105950006500000009005250000020007451001042
:1059600009005250000000018051001009005250FF
:10597000000000028C51001009005250000000206D
:105980009851001006005250197CA0B6A451001086
:105990000008DC123457C0A8B2DFFFFFFF00C0A828
:1059A000B201FE800000000000000208DCFFFE578C
:1059B000572500000000000000000000000000006B
:1059C0000000FFFFFFFFFFFFFFFF000000000000DF
:1059D00000000000000000000000000000000000C7
:1059E0000000C0A8B201200148604860000000002B
:1059F00000000000888803006972715F6164645F61
:105A00007461696C5F746F5F667265655F6C697302
:105A100074000000696E736572745F626C5F33328C
:105A2000000000006972715F72656D6F76655F6876
:105A3000616E646C657200006D616B655F6A5F31F9
:105A4000360000007265736F6C76655F6A5F313691
:105A5000000000006972715F7365745F6578636C44
:105A600075736976655F68616E646C6572000000CD
:105A70006D757465785F6578697400006D7574651F
:105A8000785F656E7465725F626C6F636B5F756E75
:105A900074696C0072756E74696D655F696E6974A6
:105AA0005F6D757465780000616C61726D5F706F19
:105AB0006F6C5F6765745F64656661756C74000028
:105AC000616C61726D5F706F6F6C5F6972715F683E
:105AD000616E646C65720000706C6C5F696E6974F5
