:020000041000EA
:10000000002008205D0100101B0100101D010010E0
:100010001101001011010010110100101101001058
:100020001901001019010010190100101F01001022
:10003000110100101901001021010010230100100E
:100040001101001011010010110100101101001028
:100050001101001011010010110100101101001018
:100060001101001011010010110100101101001008
:1000700011010010110100101101001011010010F8
:1000800011010010110100101101001011010010E8
:1000900011010010110100101101001011010010D8
:1000A00011010010110100101101001011010010C8
:1000B00011010010110100101101001011010010B8
:1000C00011010010110100101101001011010010A8
:1000D0001101001011010010110100101101001098
:1000E0001101001011010010110100101101001088
:1000F0001101001011010010110100101101001078
:100100001101001011010010110100101101001067
:10011000EFF30580103800BE00BE00BE00BE00BE7A
:1001200000BE00BEF2EB88714CC001107CC0011013
:10013000A001001090A31AE7D3DEFFFF42012110B7
:10014000FF01000034DC0100793512AB4FF00000F4
:100150001E49086006C881F3088810474FF05040D8
:10016000006810B14FF00000F2E70DA40ECC00299A
:1001700002D000F012F8F9E71549164A002000E015
:1001800001C19142FCD11449884714498847144958
:10019000884700BEFDE701C901C29A42FBD3704700
:1001A0007CC0011010010020001E00206CDD011039
:1001B00000000820000008206CDD0110001008205D
:1001C00000100820000000007047000008ED00E06B
:1001D000001E002098880020BD670010E10200107A
:1001E00081670010F8B500BF064B0749C91A89108E
:1001F00048BF0131491003D0044B0BB101481847E7
:10020000704700BF001E0020001E002000000000FC
:1002100008B5054B1BB105490548AFF30080BDE8A3
:100220000840FFF7E1BF00BF00000000985D00201C
:1002300058230110024A13680133136001207047EC
:10024000086B0020F0B585B007460C4615461E46E3
:1002500003F080FBFB174FEA431E4EEAD76E4FEACE
:10026000471CBCEB070C6EEB030E4FEA8E0E4EEAFA
:100270009C7E4FEA8C0C1CEB070C43EB0E03DB005F
:100280000296019500944FEACC0243EA5C7303F0B6
:1002900045FD05B0F0BD000008B50E4B1B680E4AC9
:1002A00012689B1A132B07D80A4B1B680B4A12685B
:1002B0009B1A012B07D808BD1432074B1A60142073
:1002C00000F03AFBF0E70232044B1A60022000F023
:1002D000B9FBF0E7086B0020245C0020205C0020C4
:1002E00008B506F0B7FB162002F06BFC16230124BC
:1002F00044EC4430002545EC40304FF4FA6003F004
:100300007BFC0BF03DFA0BF05BFA0BF023FA01F0EB
:100310003BF80BF065FA00F0D5FC01F0C1FD02F0EE
:100320009DF800F097FE00F069FE00F07DFE00F001
:10033000A5FA0E4B2A460E492046FFF783FF18B94F
:100340000C4806F09AFBFEE716234FF0010242EC40
:10035000403001F0D5F800F063FD02F0B9F800F08C
:10036000EBFE054B1860FFF797FFF4E7901F0020A6
:100370003502001058230110085E002007EE101A05
:10038000DFED137A37EE277AFCEEC77A17EE903A54
:100390009BB2B3B182B007EE903AF8EE677A37EECF
:1003A000677ADFED0C7A27EE277AFCEEC77ACDED7F
:1003B000017A9DF804201B0443EA0223036002B083
:1003C000704700221B0443EA02230360704700BF0A
:1003D0000000003B00008043002202604260826017
:1003E000C2604FF4803202604FF4F83242604FF442
:1003F000802282604FF440228260704738B5044604
:100400000D46FFF7E9FFEA1C63686FF3D01343EA78
:10041000C51343EA02336360204638BD08B5044B78
:1004200000221A60034811F063FF0020002108BD7C
:10043000FC5D0020005E002010B5044603F08AFA3F
:10044000214603F02AFB10BD70B584B00646144661
:100450001D4603F0F3FC221845EB0103002B0BDBD8
:100460009DF8281002910999019108990091304650
:1004700003F0E4FA04B070BD4FF0FF326FF00043B8
:10048000EEE7F0B585B005460C4616461F4603F06C
:1004900061FA9DF828300293019700962A46234678
:1004A000FFF7D2FF05B0F0BD4FF0A043D3F80C34F6
:1004B00013F0010F1AD000B583B04FF0A043012212
:1004C000C3F80C240A4B186868B901230093002371
:1004D000084A4FF4C8700021FFF7D3FF044B18609F
:1004E00003B05DF804FBFFF7A7FFEEE7704700BF1E
:1004F000FC5D00201D04001008B53F2906D80368E4
:1005000023F4FC0343EA4141016008BD034B044A64
:1005100040F21B11034806F037F900BF6C230110AD
:10052000E04A01108023011008B5102906D803689D
:1005300023F4F03343EA4131016008BD034B044A20
:1005400040F22911034806F01FF900BFD82301101B
:10055000C44A01108023011000B583B00146002376
:1005600001931023019303F5FC03019301A8FFF706
:10057000DBFF019B23F00C0242F00802019223F4FE
:10058000F85222F00C0242F0080201920C4A1A4082
:1005900042F0080201920B4A1A4042F00801019110
:1005A00042F009020192084A1A4042F009020192FF
:1005B0000648184040F00900019003B05DF804FBC4
:1005C000F3E0FFFEF3E07FFEF3E07FFCF1E07FFC71
:1005D0002DE9F04786B00646884691461D460E9F97
:1005E0001C460BE006F12F4C0CF5600CCCF30751C8
:1005F0000631C9B2204602F049FA0134EB19A34290
:10060000F0D8012400943B462A464146304609F082
:1006100097FB0DF1080A49465046FFF7EFFE049B91
:1006200023F0785222F4202242F0005242F4202299
:100630000492059A22F01F0205F01F052A43059235
:1006400022F07C7242EA0752059223F07E4323F4A3
:100650002C2343F0C04343F420230493052003F0EC
:100660006FFC07EE100AB8EE477ADDED0F7AF2EE76
:100670000A6A67EEA67AC7EE277A17EE901A5046F6
:10068000FFF77CFE53464A464146304609F0A7FB39
:10069000336804FA08F42343336006B0BDE8F087FA
:1006A00070B582B004460D46032009F037FA0020E9
:1006B000FFF752FF019004F12F4101F56001090D90
:1006C00005EBC10101A8FFF717FF019B23F4F033ED
:1006D00043F40052019243F4000343F400530193A6
:1006E000043504EB85054FF0A044002626606560C4
:1006F0000823A360019B23610120FFF72DFF2664DF
:10070000084B63640125A564206507490A2002F0AF
:1007100007FC064BC3F8045429460A2002F0C6FB26
:1007200002B070BD3C000050A90400100020005031
:1007300010B4002305E000EB4314084A42F82340BC
:1007400001338B42F7D3054B002243F821204FF0B1
:10075000A042D3675DF8044B704700BF144A0020E5
:100760002DE9F04F85B08246894616469B46392BC7
:1007700001D94FF0390BB9F1100F01D94FF0100921
:10078000002462E00133072B3FDC11F0010F0DD094
:1007900006EB4718C3F107094FF0010C0CFA02FCF5
:1007A00058F8294044EA0C0C48F829C010F0010F11
:1007B0000BD0C3F107084FF0010C0CFA02FC5EF8F5
:1007C000284044EA0C0C4EF828C015F0010F0DD05B
:1007D00006EB4B18C3F107094FF0010C0CFA02FCB1
:1007E00058F8294044EA0C0C48F829C040086D0824
:1007F0004908C7D10028C5D1002DC3D1DDF8048038
:10080000D146DDF808A0039C05E0DDF80480D14660
:10081000DDF808A0039C0132914513D9B8F1380FD7
:10082000F9D8AB2303FB02A308EB48015D18595C20
:100830006878AD780023CDF80480CDF808A0CA46CA
:100840000394A0E7A34644460134A34512D904EB20
:1008500044056F1CAB1C019306EB4515602200217B
:1008600028460BF063FF0022AE46A0465C46DDF84A
:1008700004B0D1E705B0BDE8F08F000000B589B045
:1008800001230293102301930023009305AB06AAD2
:1008900007A9144809F0F9FAF0B1134B019310239A
:1008A00000930023059A06990798FFF791FE01220D
:1008B00011460E4802F0CCFD06990798FFF7F0FEAE
:1008C0000B4806F0DAF80B4BC9221A700A4B0122CA
:1008D0001A7009B05DF804FB084B094AEF2109487A
:1008E00005F052FF284B011000504349005E0020E4
:1008F000542401108E8800208D880020F8230110D8
:10090000B84A011000240110062805D9064BC82258
:100910001A70054B1878704718B9034BC9221A7022
:10092000F7E7014B1870F4E78E880020014B187828
:10093000704700BF8E88002010B5364B1B68BBB9CE
:10094000354B197806292DD84B1E344A1360344A8A
:100950001278914219D1314B1A68324B53F8323028
:100960003922102130489847304B01221A7010BDAF
:10097000834208D3181A274B18600028F7D12C4857
:1009800006F07BF8F3E70020F5E7254A1170294AC5
:1009900000201060234A02EBC3035A68264806F081
:1009A0009BF8D8E7C82913D0CA29E0D01A4BCA222D
:1009B0001A704FF42B64224600211B480BF0B6FE40
:1009C0001A4B01221A7021461C4806F085F8CEE722
:1009D000184A136801331360B3F5487FBBDD134633
:1009E00000221A600BF034FB1549A1FB0031890885
:1009F00001EB4101A0EB4101084B19604A1C084B77
:100A00001A70084B03EBC1035A6801310A4806F01B
:100A100063F8A0E7A03D00208E880020B85D00208C
:100A20008F880020F84A0110C44C00208D880020D7
:100A300068240110905D002084240110942401108A
:100A4000ABAAAAAA0D4B1B7813B90D4B1B78A3B107
:100A500010B50023094A1370094A1370094CAB23DF
:100A6000224610210848FFF77BFE084811F03CFCA5
:100A7000AB212046FFF75CFE10BD70478188002047
:100A80008D88002014280020C44C0020005E002027
:100A900010B584B001460F4C4FF42B6220460CF089
:100AA000CDFA0D4B01221A700C4B4FF4FA621A600A
:100AB00004F1B103029304F1AE03019304F1AB031B
:100AC0000093A31DE21C2146054806F005F804B07A
:100AD00010BD00BFC44C002081880020A03D002034
:100AE000AC240110002393420CD210B410F803C0C0
:100AF000054C04F801C0013301319342F6D35DF88F
:100B0000044B7047704700BF145E002030B58BB0B7
:100B10004FF400530993474B9A6A474B1A60196880
:100B2000464B1868464A1378DBB2091A454840F824
:100B3000231013780133DBB2137013780B2B02D917
:100B4000134600221A703C4B1A683C4B1A603E4C0C
:100B50002378DDB20133DBB223700AF0FDF83B4BA2
:100B600043F8250023780B2B01D9002222700DF1C8
:100B700022020921052009F03FFEBDF82220002AAB
:100B80002ED1042142F6A8000AF026FC09A906206D
:100B90000AF0BCF9274B9B6A274A12689B1A2C4A19
:100BA000136012682B4B1B689A4203D9284B1A68B2
:100BB000284B1A60284A1378D9B20133DBB213707C
:100BC000234B1868254B43F8210013780B2B02D9CF
:100BD000134600221A70224B01221A700BB030BD4E
:100BE000204B1C780DF10F03019308AB009304AB6D
:100BF00040F2DC511C4804FB0101052009F0F2FD24
:100C00000028BEDD174A1378D9B20133DBB2137066
:100C100080B2164B23F811001378DBB21449A1FB04
:100C2000030101F0FC0000EB91015B1ADBB21370D1
:100C3000A7E700BF00000B408C6A00209C6A0020E0
:100C400092880020D86A002084880020F05B002071
:100C5000946A0020986A002091880020A86A0020E9
:100C60009588002093880020186B00200C6B0020D2
:100C7000CDCCCCCC0A2921D910B50A460478037909
:100C80004179090441EA0361837941EA0321C37987
:100C9000194390F808C0437A43EA0C230A3A92B207
:100CA000934200D81A460A30FFF71CFF14F0010FD8
:100CB00000D110BD0248FFF7EBFEFAE7704700BF16
:100CC000145E00202DE9F041B0B0504C204606F0F3
:100CD00005FADFF8488198E803002E90ADF8BC10C3
:100CE00063798DF8BB30A3798DF8BC30E3798DF84A
:100CF000BD30474E2D966FF07F452C95454A2B927F
:100D00004FF008332A93444C30A911E903002060C6
:100D1000A180C4F80660C4F80A50C4F80E20C4F8D4
:100D2000523026AD08F108030FCB85E80F0022AF43
:100D30004FF0000CCDF888C0CDF88CC0CDF890C035
:100D4000CDF894C00DF1780E08F118030FCB8EE8A2
:100D50000F001AAECDF868C0CDF86CC0CDF870C0E9
:100D6000CDF874C00DF1580C08F1280898E80F0070
:100D70008CE80F000FCDC4F81200C4F81610C4F8A8
:100D80001A20C4F81E303D460FCDC4F82200C4F826
:100D90002610C4F82A20C4F82E30BEE80F00C4F88C
:100DA0003200C4F83610C4F83A20C4F83E30354654
:100DB0000FCDC4F84200C4F84610C4F84A20C4F865
:100DC0004E30BCE80F00C4F85600C4F85A10C4F8FE
:100DD0005E20C4F86230032384F8663004F1100505
:100DE00058263246294668460CF028F994E80F0048
:100DF0000AF014FD3246294668460CF01FF994E8C3
:100E00000F000AF05FFD30B0BDE8F081E85B002024
:100E1000C0A8B2E1C0A8B20174570020384B01103D
:100E200030B587B043F208000AF010FB1C2800F22E
:100E3000C080DFE800F0A8BEBEBEBEBEBEBEBEBE65
:100E4000BEBEBEBEBEBEBEBEBE97BEBEBE0FBEBE98
:100E5000BEBE8E0042F208000AF0F8FA10F0010F50
:100E60002BD100200AF0C0FB0246002853D0B0F579
:100E7000806F01D94FF480625049002009F046FC90
:100E8000041E40F397804D4D00232B5502F0D6FFF2
:100E90004B4BC3E900014B4928460BF0F3FE08B168
:100EA00000220270454C2146474805F015FE0021FE
:100EB000204600F0B5FD01247CE005AD0422294662
:100EC00042480AF03BFB42480AF0C0FA0402A4B2CE
:100ED00040480AF0BBFA23189BB29DF816209DF8F3
:100EE00017100293019100929DF815309DF814207F
:100EF0000021394805F0F0FD012142F608000AF012
:100F00006BFA02F09BFF2E4BC3E90001294600203B
:100F100000F06CFDA5E72A4B1C685D6802F08EFFAF
:100F2000001B61EB05012D4B83424FF000038B4109
:100F300001DB01243EE009222949002009F062FB7F
:100F40000021284805F0C8FD002009F00DFB002411
:100F500030E00021244805F0BFFD002009F004FB2B
:100F6000044627E0002009F0C9FA0146044601289A
:100F700003D01E4805F0B0FD1CE041F288311C484A
:100F800005F0AAFD16E0202341F28832012100205D
:100F900009F02EF8044638B941F28832002115488C
:100FA00005F09AFD012405E00146134805F094FD83
:100FB00000E00124204607B030BD00BF0C460020F1
:100FC000881F0020802501106425011008200100E1
:100FD0000840010008410100342501103F4B4C003E
:100FE0008425011090250110B8250110E02501107D
:100FF000F8250110382601101826011000B583B01D
:10100000002301934FF40053019301A9072009F035
:101010007DFF044B00936946062009F077FF03B07B
:101020005DF804FB97FFFF0010B5152001F0C9FD26
:101030001524002242EC44400121204601F042FDEB
:10104000034B01220421204601F0A2FD10BD00BF88
:101050000D0B001000B583B00AF0CAFC4FF400532A
:10106000019301234FF47D620221052008F0C0FFA7
:10107000052806D005210B4805F02EFD03B05DF8CC
:1010800004FB094B4FF47D620521084805F024FD5F
:10109000042142F2A8400AF09FF901A9062009F0B4
:1010A00035FFEBE75C2601107C2601108826011035
:1010B000F8B51C4B1A7801321B4B83FB02135B10F3
:1010C00003EB8303D31ADCB200260CE06A1C16493A
:1010D00081FB0231D317C3EB610303EB8303D31A04
:1010E000DCB20136F6B2042E1AD825460F4B33F87F
:1010F00014309BB2002BE9D00D4A13780133DBB2D8
:1011000013700A4F37F8141089B240F2DC50094BC3
:1011100000FB0430FFF7AEFD002327F81430D5E7BD
:10112000F8BD00BF93880020676666660C6B0020E0
:1011300082880020186B0020454B1B780BB90020DB
:1011400070472DE9F04786B00024414B1C70414D9B
:10115000AB6A414A12689B1A404F3B60AB6A404EF3
:101160003360FFF7A5FFAB6A32689B1A3D48036006
:10117000DFF8348198F800103B4E32783B4D2B78E5
:10118000DFF828C1DCF800C0DFF824E1DEF800E079
:10119000D7F800900068364F97F800A0CDF810A05F
:1011A0000390CDF80890CDF804E0CDF800C03148A8
:1011B00005F092FC88F800403C7034702C7008E018
:1011C0002D4B53F8242021462C4805F085FC013492
:1011D000E4B22B4B1B78A342F2D8002408E0294B41
:1011E00053F824202146284805F076FC0134E4B267
:1011F000264B1B78A342F2D80024244B1C7009E034
:10120000234B33F8142092B22146224805F064FCA7
:101210000134E4B2204B1B78A342F1D800241E4BCA
:101220001C70174B1C7008E01C4B53F824202146FF
:101230001B4805F051FC0134E4B21A4B1B78A34261
:10124000F2D8184B00221A70002006B0BDE8F087D3
:101250009588002000000B409C6A0020906A0020C6
:10126000A46A0020A06A00208888002085880020C9
:1012700082880020B0260110D86A00202C27011097
:1012800092880020A86A0020482701109188002039
:10129000E45D00206827011090880020F05B0020AA
:1012A000882701108488002087880020946A002005
:1012B000986A002011234FF0000242EC4030704742
:1012C00011234FF0010242EC4030704708B50A4646
:1012D0000146024811F010F808BD00BF00000840A8
:1012E00000B583B08DF8070001220DF10701034816
:1012F00011F002F803B05DF804FB00BF00000840E5
:1013000008B502460B46FF21014810F0E5FF08BD75
:101310000000084000B583B000238DF8073001239A
:101320000DF10702FF21044810F0D6FF9DF80700D9
:1013300003B05DF804FB00BF0000084008B54FF49F
:1013400040100AF083F800F0010310F0020F0AD0F9
:101350006422C0F3800043B1064940B1064B074800
:1013600005F0BAFB08BD0A22F3E70549F5E7054B8E
:10137000F5E700BFBC2D0110A8270110B827011008
:1013800018440110B027011010B584B011234FF09C
:10139000010242EC40301A491A4809F091FB1A4BFD
:1013A0001A4A1B491B4809F09DFB1B4B0FCB8DE8CC
:1013B0000F001A4805F061FB6946042009F0A6FDFC
:1013C000B0F1FF3F06D0164805F057FBFFF7B6FF18
:1013D000002410E0134805F050FB0EE0204608F012
:1013E000CBFDA0000130C000FF2100F5205009F026
:1013F000F3FF0134E4B2072CF0D904B010BD00BFF4
:10140000C1120010B5120010CD120010011300100F
:10141000E112001015130010704B0110DC270110B1
:1014200004280110F02701104FEA104C074A1368F6
:10143000591C1160194601F802CB4FEA102C1160BB
:1014400083F801C0D91C1160987070479C3D002042
:1014500008B5034608B9184608BD07EE900AF8EE2D
:10146000677A0E499FED0E7AC7EE877A17EE900ADB
:1014700003F046FF07EE900A9FED0A7A67EE877A3F
:10148000B6EE007A77EE877AFDEEE77A17EE903ABD
:10149000FF2B01DCDBB2DEE7FF23DCE7CDCC0C4029
:1014A0000000C84200007F4308B52DED028B0346C3
:1014B00018B91846BDEC028B08BD07EE900AF8EE8D
:1014C000677A9FED0D8A0D49C7EE887A17EE900A6C
:1014D00003F016FF07EE900A67EE887AB6EE007A00
:1014E00077EE877AFDEEE77A17EE903AFF2B01DC74
:1014F000DBB2DEE7FF23DCE700007F43CDCC0C400E
:1015000038B5002411E00AF0A3FD3C4A82FB00320A
:101510000244C317C3EB6213C3EBC30203EBC20362
:10152000C31A374A42F8243001340F2CEBD9002576
:101530000BE0002223E0002325E01B0243EA0243E4
:101540000343304A42F8253001350F2D20D80AF0E8
:101550007FFD2D4B83FB00230344C417C4EBA3047E
:10156000C4EBC404041B0AF073FD4342C0B2DBB2F7
:1015700058BF5842C0B214F0040FDAD0024614F03B
:10158000020FD8D0034614F0010FD6D10020D4E7C3
:1015900000240CE00AF05CFD434200F00F0003F071
:1015A0000F0358BF5842194B43F824000134382C1C
:1015B000F0D900240BE00AF04BFD434200F0070095
:1015C00003F0070358BF5842114B18550134382C0B
:1015D000F1D9002405E0E0B2FFF73AFF0D4B1855B2
:1015E0000134632CF7D9002405E0E0B2FFF75CFF7B
:1015F000094B18550134FF2CF7D938BDEF23B88FAC
:10160000406A0020006A002093244992E06800208C
:10161000C4690020285C00208C5C00202DE9F84380
:10162000814688461546002724E04FF47F00FFF7E7
:10163000FBFE0134AC421CD2A319184A126803EB1A
:10164000620303F03F03092BEFD9A3F10F02092A2C
:1016500006D91E3B092B08D8FF20FFF7E5FEE8E777
:101660004FF47F40FFF7E0FEE3E70020FFF7DCFEEA
:10167000DFE7013747450BD2094B53F8276005FBDD
:1016800007F303EB43034B44064A13600024D1E7FE
:10169000024A136801331360BDE8F883886A0020AA
:1016A000406A00209C3D00202DE9F8431646234A5D
:1016B00013680133136013F0070F3DD1814688464C
:1016C00000272EE0002222E0002324E01B0243EA50
:1016D00002431843FFF7A8FE0135B54220D20AF0B5
:1016E000B7FC174B83FB00230344C417C4EBA304CC
:1016F000C4EBC404041B0AF0ABFC4342C0B2DBB22F
:1017000058BF5842C0B214F0040FDBD0024614F0A8
:10171000020FD9D0034614F0010FD7D10020D5E72E
:101720000137474508D206FB07F303EB43034B445D
:10173000044A13600025D0E7BDE8F883886A0020DA
:10174000932449929C3D00202DE9F04115461B4A07
:1017500013680133136013F0010F29D180460F463F
:10176000002614E00020FFF75FFE0134AC420DD2EA
:10177000134B1B78002BF5D10AF06AFC10F01F0FF9
:10178000F0D16FF07F40FFF74FFEEEE70136BE422B
:1017900008D205FB06F303EB43034344094A1360F5
:1017A0000024E3E7064B1B7823B9054B03221A708C
:1017B000BDE8F081013B024A1370F9E7886A002016
:1017C000838800209C3D00202DE9F0478246884612
:1017D0001746002635E0002321E0000240EA0240DF
:1017E0001843FFF721FE0135454529D207FB056364
:1017F00003EB430353441A4A136005EB0902194BE8
:101800001B6802EB6302184BA3FB0213DB081A21CF
:1018100001FB1323DBB2032BDDD9033BDBB203EB6C
:1018200083035B00DBB214F0040200D01A4614F00C
:10183000020000D0184614F00101CED10B46CCE7CF
:101840000136BE4206D2094B53F82690084B9C5DE8
:101850000025C9E7034A136801331360BDE8F08728
:101860009C3D0020886A00204FECC44EE0680020B8
:10187000C46900202DE9F8438146884616460025B4
:1018800038E0B71E42E0C4F10F021201D2B2234B7E
:10189000A3FB0513E91A03EB51039B08C3EBC30336
:1018A000EB1ADBB20133D9B213F0040300D01346B4
:1018B00011F0020000D0104611F0010100D10A46DB
:1018C000000240EA03401043FFF7AEFD0134B4428A
:1018D0000FD20E2CD7D9BC4207D83B1B0E2B06D8F3
:1018E000E21B0F321201D2B2D1E70022CFE7002271
:1018F000CDE7013545450BD206FB05F303EB43036A
:101900004B44074A13600D2DBBD937460024DEE750
:10191000044A136801331360BDE8F8832549922413
:101920009C3D0020886A00202DE9F04180460F464A
:10193000164600252CE0014620E0024622E0130274
:1019400043EA01431843FFF76FFD0134B4421ED24E
:10195000184B1B6803EB0413DBB2174AD05C174B20
:10196000A3FB0523EA1A03EB52039B08C3EBC30353
:10197000EB1A013313F0040FDDD1002113F0020F35
:10198000DBD1002213F0010FD9D10020D7E70135B8
:10199000BD4208D206FB05F303EB43034344084A68
:1019A00013600024D2E7034A136801331360BDE8D3
:1019B000F08100BF886A00208C5C002025499224B9
:1019C0009C3D002038B50D46C4B208460BF0ACFB78
:1019D00082B22946204608F015FE0222024920461E
:1019E00008F010FE38BD00BF2828011030B5C5B082
:1019F00004464B788A78C87804AD0290019200932F
:101A00000B78064A12684FF48071284604F042FEB3
:101A100029462046FFF7D6FF45B030BD48160020C6
:101A200070B5ADF54A7D04460D4662490BF0CAF922
:101A300038B3614920460BF0C5F950B35F492046E1
:101A40000BF0C0F950B303225D4920460BF0E0F8DB
:101A5000002850D14FF0FF32019220460BF064FB7A
:101A600003282AD80020FEF74FFF034602AC554A50
:101A70004021204604F00EFE21462846FFF7A2FF33
:101A800004E0514B19682846FFF79CFF0DF54A7D8D
:101A900070BD4E492846FFF795FFF7E702AC4FF4BB
:101AA0004871204600F062FB0146494805F014F8F1
:101AB00021462846FFF786FFE8E701AA4549E01CD2
:101AC0000AF03EFD012802D10198002804DA4249BB
:101AD0002846FFF777FFD9E7C0B2FEF715FF0346A8
:101AE00002AC384A4021204604F0D4FD2146284665
:101AF000FFF768FFCAE7394920460BF063F908B3DE
:101B0000374920460BF05EF970B3364920460BF09A
:101B100059F900283AD0344920460BF053F90028EF
:101B200042D1ECB217223149204608F06BFD022069
:101B300002F062F8204608F017FD29462C4804F010
:101B4000CBFFA3E716234FF0010242EC40300DF12A
:101B5000080C6446274E0FCE0FC4336823706146CD
:101B60002846FFF72FFF91E716234FF0000242ECC3
:101B700040300DF1080C64461F4E0FCE0FC4336881
:101B8000238061462846FFF71DFF7FE7FEF7CEFE64
:101B9000034602AC194A4021204604F07BFD214651
:101BA0002846FFF70FFF71E715492846FFF70AFFA0
:101BB0006CE700BF2C2801103428011058280110B0
:101BC00084280110882801104C1600203C280110A0
:101BD00060280110A4280110A8280110CC4501108C
:101BE000E0280110F828011010290110182901100F
:101BF00030290110CC280110E4280110FC28011024
:101C00005829011070B504460D4616460023DB8A9C
:101C1000002242E800F212F4800F0BD1102145F2AD
:101C20004700984703460D4AD2F80C2842B96FF096
:101C3000120070BD042145F2470098470346F2E7C1
:101C4000BFF35F8F3246294620469847BFF35F8F28
:101C5000024B0022C3F80C28EBE700BF00000E4047
:101C600070B504460D4616460023DB8A002242E882
:101C700000F212F4800F0BD1102145F24C0098476E
:101C800003460D4AD2F80C2842B96FF0120070BD1D
:101C9000042145F24C0098470346F2E7BFF35F8FFB
:101CA0003246294620469847BFF35F8F024B0022F9
:101CB000C3F80C28EBE700BF00000E4010B5044647
:101CC0000023DB8A002242E800F212F4800F07D1E1
:101CD000102144F24720984703462046984710BDFC
:101CE000042144F2472098470346F6E770B50446BE
:101CF0000D4616460023DB8A002242E800F212F469
:101D0000800F09D1102145F24730984703463246EB
:101D100029462046984770BD042145F24730984730
:101D20000346F4E708B5FFF7C9FF002800DB08BD4C
:101D30000020FCE700B5ADF6C44D00224FF44C6125
:101D40006846FFF78DFF0DF6C44D5DF804FB30B516
:101D500085B005460C46FFF7EDFF00281EDB48F274
:101D6000100242EA056204216846FFF74BFF032890
:101D700017D1019BC3F30C02C3F34C33120322604F
:101D800002F18051616001331B03A36003F18051B4
:101D9000E1609B1A2361002005B030BD4FF0FF3099
:101DA000FAE74FF0FF30F7E710B586B0044640225F
:101DB000052101A8FFF79AFF05280ED1019B402BB2
:101DC00001D000200AE00DF1080CBCE80F002060F3
:101DD0006160A260E360012000E0002006B010BD59
:101DE000F8B504460E46016801318900406803F0E9
:101DF0003FFB05466060276830460AF005FD45F860
:101E000027006268236852F8232012B1013323604F
:101E1000F8BD02480AF08CFBFAE700BFB82D0110AC
:101E200038B505460C4611F4004F0FD114F4804F1D
:101E300010D114F4003F12D114F4002F14D114F473
:101E4000802F16D114F4803F18D138BD0E49FFF70A
:101E5000C7FFEBE70D492846FFF7C2FFE9E70C494A
:101E60002846FFF7BDFFE7E70A492846FFF7B8FF16
:101E7000E5E709492846FFF7B3FFE3E707492846A6
:101E8000FFF7AEFFE1E700BFC02D0110CC2D011020
:101E9000D42D0110E42D0110F42D0110042E011099
:101EA00000B585B06846FFF77FFF9DF90210034833
:101EB00004F012FE05B05DF804FB00BF0C2E01100B
:101EC00010B50C4690F90200FFF72CFF2146FFF7F2
:101ED0003EFF00B910BD4FF0FF30FBE738B50546B7
:101EE000082003F0AFFA044600230360436029464C
:101EF000FFF796FF204638BD2DE9F84304460F460C
:101F000008460BF011F981460025A84600E001358E
:101F10002668AE420AD9636853F825000BF004F92D
:101F20008044013EAE42F2D9C844F0E708F1010115
:101F3000012003F091FA064610B1002505700AE071
:101F40000C480AF0F5FA3046BDE8F88339463046C9
:101F50000AF03AFC01352368AB42F4D9636853F8C0
:101F6000251030460AF030FC2368013BAB42F1D922
:101F7000ECE700BF2C2E011038B50546002405E023
:101F80006B6853F8240003F07DFA01342B68A342F8
:101F9000F6D8686803F076FA284603F073FA38BD7D
:101FA00030B587B00446094B99420BD00A4601ADC3
:101FB0000749284604F058FB29462046FFF710FF42
:101FC00007B030BD0349FFF70BFFF9E755FF8BE47E
:101FD000442E0110342E011010B5044631224FF466
:101FE0008871FFF70FFE002821DB2368C4F8103149
:101FF000312B22D16368DAB2C4F81821C3F300236D
:1020000084F81431A368C3F30C02C4F81C21C3F391
:102010004C33C4F82031E368C4F824310020C4F8FC
:1020200028010423C4F82C31C4F8300110BD00236A
:10203000C4F81831C4F83001F8E7034B034AEB2128
:10204000034804F0A1FB00BF4C2E0110944B01107B
:10205000602E0110D0F82821D0F818319A427CDA8D
:1020600070B5A4B005460C46D0F82C21501C55F88C
:102070002230C3F30C012160C3F34C336360911C25
:1020800055F82030A360C3F30030207603F001033D
:102090002373E3B1D31C55F82100111D55F82330EB
:1020A00020616361C5F82C11A368C3F3C113C4F8A0
:1020B0009C30227E13430FD1237E03B96376D5F87B
:1020C00028310133C5F82831012024B070BD002229
:1020D0000023C4E90423E5E7D5F8282148F2C0032A
:1020E00043EA026290216846FFF78CFD002807DB77
:1020F000009A48F2C0039A4206D10023012215E05B
:10210000C5F830010020E0E7154B164A40F22111D6
:10211000154804F039FB24A901EB820151F8900C19
:1021200003F1280144F8210001330132D4F89C1056
:102130009942F0D8237E002BBED00DEB82011DF812
:10214000226006F07F063246013104F119000AF0E0
:1021500075FF264400237376AEE70020704700BF6A
:10216000502E0110804B0110602E01102DE9F0431C
:10217000ADF5057D89468390829135A8FFF72CFF48
:10218000002845D104469DF8E831002B49D07B9CBE
:10219000002C4CD07E98FFF7A1FE05467649FFF74C
:1021A000ABFE04467E9A12F0806F46D0734B12F05D
:1021B000006F44D0724912F0804F42D06F48002A1D
:1021C00041DBDFF8D4C112F0805F3FD0DFF8ACE133
:1021D00012F0005F3DD06A4A0DF5027883AF059496
:1021E0000492CDF80CE0CDF808C001900091654A4A
:1021F0004146384600F0BEFB204603F043F928462E
:10220000FFF7BAFE604A4146384600F0B3FB61E092
:10221000819B5E4A82A983A800F0ACFB4FF0FF349B
:102220009FE05B4A82A983A800F0A4FB99E0594A89
:1022300082A983A800F09EFB93E0574BB7E756496D
:10224000B9E75548BBE7DFF838C1BCE7DFF848E13C
:10225000BEE7514AC0E7504C4EE04F4D50E04E4F64
:1022600052E0474E53E0DFF830C155E04A4A57E0AC
:10227000DDE90C23CDE90023484A82A983A800F0B8
:1022800079FB5FE00DF13903454A82A983A800F08C
:1022900071FB5BE004F1280208AB53F822102846DA
:1022A000FFF77EFE01342F9BA342F3D83249284624
:1022B000FFF722FE044603463A4A82A983A800F0AB
:1022C00059FB204603F0DEF82846FFF755FE0A20AA
:1022D00004F0C4FB08A935A8FFF7BCFE00283BD0DA
:1022E0007F9B013B089A1103099A013210030A9A55
:1022F00012F0806FAFD0214C12F0006FADD0204DA6
:1023000012F0804FABD01D4F002AAADB224E12F0F4
:10231000805FA8D0DFF864C012F0005FA6D0184A32
:102320000792CDF818C00596049703950294019082
:1023300000911D4A82A983A800F01CFB9DF82C3057
:10234000002B95D19DF83830002B9BD10A98FFF7D0
:10235000C5FD05460024A6E7819B3BB9829CA9EBFD
:10236000040420460DF5057DBDE8F083074A82A9E7
:1023700083A800F0FFFAF1E7102F0110C03501101B
:10238000A02E0110142F0110542F0110A42E0110A3
:10239000D02E0110F02E0110C8280110982F011026
:1023A000A82F0110B02F0110642F01102DE9F0416A
:1023B00005460E46174698460023DB8A002242E86F
:1023C00000F212F4800F0BD1102144F252209847F2
:1023D000044643463A4631462846A047BDE8F081C8
:1023E000042144F2522098470446F2E770B50446AF
:1023F0000D4616460023DB8A002242E800F212F462
:10240000800F09D1102145F24730984703463246E4
:1024100029462046984770BD042145F24730984729
:102420000346F4E710B586B004464022052101A812
:10243000FFF7DCFF05280ED1019B402B01D00020C7
:102440000AE00DF1080CBCE80F0020606160A2609A
:10245000E360012000E0002006B010BD08B5184B75
:1024600000221A7083F82028C3F81C285A60C3F889
:10247000282883F83028202341F2930201210846BE
:1024800007F0B6FD012806D00E4804F0F6FA0C4B12
:1024900007221A7008BD012008F030F8012806D084
:1024A000094804F0EAFA064B07221A70F2E7044BD7
:1024B00001221A7041F29301044804F00DFBE9E790
:1024C000D43D0020C02F0110DC2F0110F42F01108B
:1024D0002DE9F0478CB043F2280008F0B7FF172829
:1024E00016D01C2800F0E081002840F0E981AD4BB7
:1024F0001B78062B00F0E781072B00F00382AA4827
:1025000004F0BBFAA74B00221A70FFF7A7FFD7E130
:1025100042F2280008F09AFF10F0010F35D1012097
:1025200009F062F80246002800F0CA81B0F5006F99
:1025300001D94FF400629D49012008F0E7F8041E1C
:1025400040F3BE81974D2B7E23442246297898483C
:1025500004F0C2FA2B78022B6BD00025914B1B782C
:10256000032B00F082808F4B1B78042B00F0BE8081
:102570008C4B1B78052B40F0A3812246894B93F8A6
:1025800030188C4804F0A8FA42E104220BA98A48CA
:1025900008F0D4FF894808F059FF0402A4B2884823
:1025A00008F054FF0444A4B29DF82F300194009326
:1025B0009DF82E309DF82D209DF82C10814804F0B8
:1025C0008BFA012142F6280008F006FF754B022223
:1025D0001A7000221A76C3F81C2883F820289EE778
:1025E000704B511C19765919497E134419740135E1
:1025F0006C4B1A7E072A01D8A542F1DB072A40F26C
:102600005F81684B197CD12902D15B7C362B12D0BB
:10261000644CA37C627C6C4804F05EFA0723237050
:1026200002226A49012007F0EDFF012007F09CFF1C
:1026300046E10025DCE75B4B9B7C4A2BE8D1594EF9
:10264000F17C327D737D1B0443EA0263B27D43EA71
:102650000223F27D1343F36001F00F0209095C4885
:1026600004F03AFA0323337078E702AE3046FFF7FE
:10267000D9FE06A93046FFF723FC002825DB0A9A7D
:102680000799544804F028FA0799464E71600A9A4F
:10269000B26004233370920A4F4804F01DFAEFF33E
:1026A000108772B67068B16800F170400FF004FED8
:1026B00087F310882A462146484804F00DFA022282
:1026C0004749012007F09EFF4DE79DF90A10454854
:1026D00004F002FA334B07221A7002223B49012010
:1026E00007F090FF012007F03FFFE9E02D4A536813
:1026F00003F17043D2F81C781F44926802EB030880
:10270000661B002E40F3DC803A463146364804F022
:10271000E3F9F319434512D9224CA3683246D4F8A1
:102720001C18324804F0D8F90723237002222749E5
:10273000012007F067FF012007F016FFC0E01B4BE8
:1027400005EB0309A3F1190832464946D8F82808D1
:1027500000F0F2F8C8F82808EFF3108A72B6324693
:10276000494638460FF08CFD8AF31088D8F81C389B
:10277000F118C8F81C18D8F80C2091427FF4F8AE74
:102780001B4804F0A9F902221A49012007F03AFF78
:10279000194804F072F9052288F80020002288F810
:1027A00030288DE0D43D002070330110ED3D002035
:1027B000443001101032011028200100284001008F
:1027C00028410100143001105C3001105416002023
:1027D00088300110F43001101C3101105C310110FF
:1027E0005C160020B430011084310110A0310110BA
:1027F000D83101105816002000320110434B4A1CFA
:1028000083F830285A19527E0B4483F82C2801355E
:102810003E4B93F83018032901D8A542EEDB03297B
:1028200003D83B4804F058F94AE0384C94F82C3867
:1028300094F82D18090441EA036194F82E3841EA0E
:10284000032194F82F381943C4F82418D4F8282801
:10285000304804F041F9D4F82828D4F824389A42B2
:1028600011D02D4804F009F92346072222700124D3
:1028700083F8204802222949204607F0C3FE20465B
:1028800007F072FE1CE0264804F0F7F80222254902
:10289000012007F0B7FE1D4B06221A70012083F8B5
:1028A000200807F061FE0BE0184CE268D4F81C1811
:1028B0001D4804F011F9012007F056FE072323708C
:1028C0000CB0BDE8F087114A92F82028002A3FF4A6
:1028D00013AE0E4A92F82128002A7FF40DAE0B4C5D
:1028E000012384F82138114804F0C7F800236268F6
:1028F0004FF47A710420FFF759FD01460C4804F0AB
:10290000EBF8FEE70B4804F0B8F8FBE5D43D0020F7
:102910004432011080320110AC32011054160020F4
:10292000D432011050160020E4320110243301107B
:1029300050330110AC33011010B50C461146C043A2
:1029400000220CE040F3000E094B0EEA030383EA79
:1029500050000CF1010CBCF1070FF3DD01328A428B
:1029600004D2A35C58404FF0000CF4E7C04310BD04
:102970002083B8ED0CB430B583B00B682BB90020C0
:1029800003B0BDE8304002B0704705460C4607ABC7
:102990000193069A0968006803F090FE002811DB95
:1029A0002368834206D92B6803442B6023681B1AD3
:1029B0002360E5E72968013BCA182A600022CA544F
:1029C0002260DDE70020DBE72DE9F8434FF05043BC
:1029D0001F681B4B53F827801FB1DFF8709000264B
:1029E00024E0DFF86C90FAE724090135ECB106F138
:1029F0000803AB4219D914F00F01F5D0114B53F86D
:102A00002730EB4013F0010FEED105F007029200E2
:102A1000EB0801FA02F28C330B4840F82320B8F19E
:102A2000000FE1D02846C047DEE708361D2E05D846
:102A3000F3080C3359F823403546D7E7BDE8F8834F
:102A4000F8270020DC5D00200080024090820240D8
:102A50004882024010B400F0070C4FEA8C0CC0080A
:102A600001FA0CF100F18C0C074C44F82C1003EB2C
:102A700080032AB103F5005319605DF8044B7047D9
:102A800003F540531960F8E7008002400C4B03EB5C
:102A9000800253F8203083F0400303F0C00302F5B6
:102AA000805CCCF80030C00000F1804000F52030A0
:102AB000416002F540524FF480731360704700BFCD
:102AC0000480034010B40C4C04EB800C79B1082353
:102AD0007AB10422134354F82020534003F00C032E
:102AE0000CF5805CCCF800305DF8044B7047002397
:102AF000EEE70022EEE700BF0480034070B5054614
:102B00000C46164652B94FF050431B688BB10A4B26
:102B1000324621462846FFF79DFF70BD152000F084
:102B2000EFF90028EFD1054B054ABD21054803F018
:102B30002BFE054BECE700BF90820240E43301100E
:102B4000AC4B0110103401104882024038B50446E5
:102B50004FF050431D680C4B53F825304BB118B162
:102B6000094B43F8254038BD0849152000F022FBE9
:102B7000F6E70028F7D0044B43F82500002203496C
:102B8000152000F0FDF9EEE7F8270020C929001014
:102B9000F8B504460D461E46174652B93A46294630
:102BA0002046FFF7ABFF47B10121152000F07EF969
:102BB000F8BD1846FFF7CAFFF0E73046FFF7C6FF3B
:102BC000F6E708B54FF0000242EC440042EC40004A
:102BD0000521FFF75BFF08BD0FB400B583B0049C6F
:102BE000074803F04AFF3CB105A90191204603F0D4
:102BF00053FF044803F041FF012003F07FFD00BFB5
:102C00005834011078260110EFF3108072B6064B8D
:102C1000D3E8CF1F01220029FAD1C3E8412F0029B0
:102C2000F6D1BFF35F8F7047E32200200023034AF1
:102C3000C2E88F3F80F31088704700BFE322002076
:102C400070B505460C461646FFF7DEFFE208A95CA4
:102C500004F0070C012303FA0CF3194205D1DBB28F
:102C60000B43AB54FFF7E2FF70BD21463046FFF740
:102C7000B3FFF8B506460D4614461F46FFF7C4FFDE
:102C800000E00134BC420ED84FEAD40C16F80C1008
:102C900004F0070301229A401142F2D1D2B20A4352
:102CA00006F80C2001E04FF0FF34FFF7BFFF002CC7
:102CB00001DB2046F8BD002DFBD00698FFF78CFF06
:102CC00038B505460C46FFF79FFFE1086A5C04F043
:102CD00007040123A3401A4205D022EA03026A54E2
:102CE000FFF7A4FF38BD034B034A3321034803F029
:102CF0004BFD00BF68340110C44B01108834011033
:102D0000054A1078431CDBB21370172B02D9134607
:102D100010221A70704700BF5E16002000B583B005
:102D20000146054B00931F2318220448FFF7A1FF1B
:102D300003B05DF804FB00BFD03401100828002068
:102D40004FF0E022936843F0005393607047000017
:102D5000002305E0044A1A440021C2E88F1F013312
:102D60001F2BF7D9704700BFD8220020064B9B6865
:102D7000103043F82010BFF35F8F00230349C1E8F0
:102D80008F3F82F31088704700ED00E0E1220020C1
:102D90000048704700E400E008B5FFF7F9FF0023A2
:102DA00004E04FF0803240F8042B01330C2BF8D9AB
:102DB00062B608BD08B50388DA0A1C2A06D15B058D
:102DC0000BD45B15023300EB430008BD064B074AEA
:102DD0004FF48F71064803F0D7FC03F5FF1303F59A
:102DE000FF531F33EDE700BFEC340110204C0110FE
:102DF0000435011008B5091A01F2FC7240F6FE73A1
:102E00009A4208D8081F11F0010F04D1C0F34A00FC
:102E100040F4604008BD034B034A4FF488710348F7
:102E200003F0B2FC4C350110144C011004350110B4
:102E300008B5091A04394B08090B0AD1C1F30A0174
:102E400041F4704101806FEA43536FEA535343806A
:102E500008BD034B034A4FF48C71034803F094FC04
:102E60007C350110F04B0110043501104209064B6E
:102E700053F8223000F01F000122824003EA0200D2
:102E8000003818BF0120704700E100E03AB1064B5E
:102E900000F1600243F8221043F820107047203000
:102EA000014B43F82010704700E100E008B50A46E6
:102EB00000F01F03012199404009FFF7E7FF08BD1B
:102EC00000F01F024009012393404030014A42F8BC
:102ED0002030704700E100E0024B9B68103053F84F
:102EE0002000704700ED00E008B5FFF7F5FF034B49
:102EF000C01A2F288CBF0020012008BD60160020BA
:102F000008B5FFF7E9FF30B1044A904201D0012033
:102F100008BD0020FCE70020FAE700BF1101001007
:102F200070B505460C46EFF3108672B60F4BD3E82A
:102F3000CF1F01220029FAD1C3E8412F0029F6D181
:102F4000BFF35F8FFFF7C8FF094B984201D0A04243
:102F500005D1324621462846FFF708FF70BD054BD4
:102F6000054AEF21054803F00FFC00BFE1220020D5
:102F7000110100108C350110484C0110043501106E
:102F80002DE9F04F87B000911546EFF3108A72B625
:102F90007C4BD3E8CF1F01220029FAD1C3E8412F8F
:102FA0000029F6D1BFF35F8F774B93F90040002CD7
:102FB00044DB804604EB4407744B03EB870797F927
:102FC0000610714A1170724A926800F1100152F8AD
:102FD0002190A9EB03022F2A3ED96E4B994534D19B
:102FE0004FF42143ADF80C304FEA440904EB4400A0
:102FF000664E06EB800068490230FFF7FBFEADF835
:103000000E004BF60153ADF81030FF238DF812304F
:103010008DF81350009B0593A14406EB890306AA83
:1030200012E9070083E8070047F0010952464946C4
:103030004046FFF79BFE07B0BDE8F08F574B584A5C
:103040004FF4BF71574803F09FFB574B544A40F26F
:103050008511544803F098FB29F0010BABEB0303F7
:10306000524AA2FB0312D20802EB4202B3EB820FD8
:103070000FD15B460026DA79AA4212D993F90620CD
:10308000002A0DDB02EB42021E46404B03EB82039B
:10309000F1E7474B424A4FF4CB71424803F074FBCF
:1030A0001E46A6B344F60103ADF80C304FF48F432F
:1030B000ADF80E3096F906B0BBF1000F1ADA4BF6F8
:1030C0000150ADF810008DF812B08DF81350009B30
:1030D00005933946301DFFF78DFEB080B47104EBC7
:1030E00044042A4B03EB840306AA12E9070083E891
:1030F00007009BE7301DFFF75DFE014604EB44022D
:10310000224B03EB8203181DFFF774FED9E74FF43F
:103110002143ADF80C306300019304EB4406DFF863
:103120006C9009EB86061C49B01CFFF763FEADF8F6
:103130000E005946301DFFF75DFEADF810004AF64F
:10314000AA235A464946521A524153431B0D8DF841
:1031500012308DF81350009A0592019B234409EB1D
:10316000830906AB13E9070089E8070044F6010369
:10317000ABF800304FF48F43ABF8023047F0010951
:1031800054E700BFE122002086880020601600205E
:1031900000ED00E01101001090160020C435011070
:1031A000304C011004350110EC350110ABAAAAAA6D
:1031B000143601102DE9F04706460D46EFF310884E
:1031C00072B6504BD3E8CF1F01220029FAD1C3E8D1
:1031D000412F0029F6D1BFF35F8F4B4B9B6800F165
:1031E000100A53F82A70494B9F4207D0AF4200F0B3
:1031F00087803C46464BFB1A2F2B06D94246394660
:103200003046FFF7B3FDBDE8F087FFF72FFE81469C
:1032100000213046FFF74AFEBFF35F8FEFF30580D2
:10322000C0B208B1824510D124F001040021A26887
:10323000954212D094F90630002B0DDB03EB4303CB
:103240002146334C04EB8304F1E7324B324A4FF40E
:103250000171324803F098FA2146954249D194F918
:103260000650002D2BDB05EB4502294B03EB8203B7
:103270009A68A260DA79E27193F90630A371002BA3
:1032800010DA4BF60150A08005EB4502204B03EB12
:103290008203234A11789971157049463046FFF729
:1032A00005FEABE705EB4503194800EB830004304E
:1032B000FFF780FD0146201DFFF79CFDE3E798B96D
:1032C00081B1FF238B714BF601538B80144A137825
:1032D000A3714AF6AA230E49641A644163431B0D85
:1032E0001370DAE7094FF1E70E49201DFFF7A0FD43
:1032F000D3E70D4B084A40F24621084803F044FA50
:10330000024F7BE7E122002000ED00E011010010F8
:103310006016002098360110004C01100435011091
:10332000868800209A160020CC36011038B540F06F
:103330000104324BE31A2F2B31D8EFF30581C9B2C8
:10334000002933D0EFF3108E72B62D4BD3E8CF5F48
:103350000122002DFAD1C3E8452F002DF6D1BFF38D
:103360005F8F4AF6AA230246244D521B5241534313
:103370001B0D4FFA83FC234B9B6853F82130A3426B
:103380001BD00023032B32D803EB43011B4A02EB73
:10339000810292F90620624520D00133F2E71A4BF0
:1033A0001A4A40F281211A4803F0EEF9194B174AE4
:1033B0004FF42171164803F0E7F9124B9B68164A47
:1033C00043F82120154B1A78827183F800C000233E
:1033D0000B4AC2E88F3F8EF3108838BD074A02EBD4
:1033E0008101FF248C714BF601538B80EAE70C4B73
:1033F000064A40F29521064803F0C6F960160020FF
:10340000E122002000ED00E0D4360110D44B011081
:1034100004350110FC3601101101001086880020CF
:103420000837011000B583B00146074B0093052310
:1034300000220648FFF71DFC002801DBC0F1330025
:1034400003B05DF804FB00BF103701109488002022
:1034500070B504460E461546FFF752FC014620465D
:1034600000F006F8A680E580BFF35F8F70BD000016
:10347000014B0B4403607047D822002010B504466E
:10348000FFF73EFC01462046FFF7F2FFFF232371C2
:10349000BFF35F8F10BD10B50446FFF731FC014646
:1034A0002046FFF7E5FFFF23237100236371BFF37D
:1034B0005F8F10BD10B50D4C09E00D4B0D4A1A2160
:1034C0000D4803F061F92046FFF7D8FF08340B4B95
:1034D0009C4209D22368002BF5D0012BEDD1204668
:1034E000FFF7D9FF0834F2E710BD00BFF81D002038
:1034F0002C370110884C01104C370110001E0020A1
:10350000024B0B440360BFF35F8F7047D82200204B
:1035100010B504460120FFF701FC01462046FFF7E5
:10352000EFFF10BD0246EFF30583DBB2103B9908B5
:1035300004D0034803F00303136070470148F9E720
:1035400000800B4000000B4010B4846AA2EB040C16
:103550000B1D50F823301B1B9C4504D3046A012328
:103560008B401C4202D1043140F821205DF8044B0D
:10357000704741EA004070470D4B1A68EFF3108125
:1035800072B6D2E8CFCF0120BCF1000FF9D1C2E86A
:103590004C0FBCF1000FF4D1BFF35F8F1A6800230A
:1035A000C2E88F3F81F3108840BF002000217047A0
:1035B000C46800202DE9F04F85B003A8FFF7B2FFE3
:1035C000954B984214BF00230123039901EB830319
:1035D000924A52F823402378994206D105460122A7
:1035E0008A4000F541535A602CE18D4B8D4A92215F
:1035F0008D4803F0C9F8D4F8149006EB46074FEA5B
:10360000C70A09EBC707D7F808B0D7F80C802846D7
:1036100000F0EAFBB0EB0B0061EB0803002BC0F2FB
:103620001A81B8F1000F64DB3B691A4600937F4BA7
:103630009A4230D0798889B2B4F90800FFF799FF2F
:103640007969009B9847009001910099019A51EA8D
:1036500002034ED01346002A29DABBEB010268EBC5
:103660000308BA60C7F80C8039F90A70002FC0F25D
:10367000F280D4F814E007EB47030EEBC30399681C
:10368000DB68511A68EB0303002BC0F2E480A44608
:103690002CF8087F17E07A69136900921046984762
:1036A00038B3009A1368009353680193CDE7284616
:1036B00000F09AFB009B1A18019B43EB0108D0E72E
:1036C0009C463EF90B70002F0EDBBCF9003003EB7B
:1036D00043034FEAC30B0EEBC3039868D968101A73
:1036E00068EB01010029EBDA29F80A70ACF80060F8
:1036F000B1E039F90A3023812369EFF3108272B601
:10370000D3E8CF0F01210028FAD1C3E8401F0028D9
:10371000F6D1BFF35F8FB4F9023029F80A30668022
:1037200021690023C1E88F3F82F3108893E0236969
:10373000EFF3108272B6D3E8CF0F01210028FAD13F
:10374000C3E8401F0028F6D1BFF35F8FB4F80480B0
:103750000FFA88F84FF6FF73A38021690023C1E8B0
:103760008F3F82F310881AE01F4630F90A60002E5E
:103770000FDBB7F9003003EB43034FEAC30A00EB5A
:10378000C3039968DA68BCEB01016EEB0202002A00
:10379000EADAA7F8008030F9098020F80960B8F16A
:1037A000000F5DDB606908EB48034FEAC30900EBDB
:1037B000C303D3F808C0D3F80CE004F10807B4F948
:1037C0000860D4E70023A37104F1080CB4F90830B1
:1037D00010E04FF0FF384FF0FF39C0E90289B4F92B
:1037E0000800984205D0ACF80020B4F90800C8538E
:1037F00023811346B3F1FF3F35D0616903EB4302E8
:10380000D70001EBC20031F93220468816F4004F90
:10381000DFD18446EDE700BF00800B40BC5D002097
:10382000E0370110B44C01100C380110B535001010
:10383000284600F0D9FA3F1A66EB0106012F76F10F
:10384000000628DA039A01239340EB63B4F9086079
:10385000002EBFF6D0AEA38813F4004F3FF467AF3D
:10386000A379002BAED1B4F90830002B13DB6269C9
:1038700003EB430302EBC3039F68DE68B6F1FF3F2F
:1038800008BFB7F1FF3FD3D03A46334603992846E5
:10389000FFF75AFECCE740BF05B0BDE8F08F00BF90
:1038A000F8B504460D4611460A4B984210D0002642
:1038B0002E44012707FA05F525623046FFF730FB55
:1038C00039463046FFF7F2FA04F501542560F8BD99
:1038D0000426EDE700800B40F8B504460E46174677
:1038E0001D46C160FFF70CFA164B03442361277095
:1038F000ABB263814FF05042127862704FF6FF72A4
:103900002281A280013B63804FF0000C08E00CF1A3
:10391000FF300CEB4C0E636923F83E000CF1010CF8
:10392000AC45F4D3084B9E4214BF0023012307EBA0
:103930008303064A42F82340054A39463046FFF7DA
:10394000AFFFF8BDD822002000800B40BC5D0020F6
:10395000B535001008B5054B1B690BB1034808BD10
:10396000034B044A6521044802F00EFFA81600200C
:103970004C3801109C4C01100C380110F8B504466D
:103980009E460069EFF3108172B6D0E8CF6F012533
:10399000002EFAD1C0E8465F002EF6D1BFF35F8F4C
:1039A000B4F90250666905EB4500C70006EBC0009C
:1039B000002D03DB36F907C0A4F802C04FF0000C5D
:1039C0002369C3E88FCF81F31088654533DB0699FF
:1039D0000161079941618260C0F80CE0418889B2B9
:1039E0000131C1F30E0101B9012141802846FFF7E1
:1039F000C0FD2369EFF3108272B6D3E8CFCF012167
:103A0000BCF1000FF9D1C3E84C1FBCF1000FF4D199
:103A1000BFF35F8FA388F353A58021690023C1E81A
:103A20008F3F82F31088E368217801228A4003F5F2
:103A300001535A60F8BD4FF0FF30FBE770B582B01C
:103A4000064615461C469DF8203033B900F0F6F9BD
:103A5000854264EB010100290ADB079B0193069B69
:103A600000932A4623463046FFF788FF02B070BD18
:103A70000020FBE7F0B585B005460C4616461F460C
:103A8000FFF768FF9DF828300293019700962A46B9
:103A90002346FFF7D3FF05B0F0BD03464089B0EBE6
:103AA000214F31DD10B50A14586902EB420200EBD8
:103AB000C2001A69EFF3108C72B6D2E8CF4F5FF0F4
:103AC000010E002CF9D1C2E844EF002CF5D1BFF370
:103AD0005F8F428892B289B28A420FD00020196962
:103AE0000022C1E88F2F8CF3108830B1DA681B7880
:103AF0000121994002F50153596010BD42F4004282
:103B0000428001209871EAE70020704710B5044612
:103B1000FFF720FF2146FFF7C0FF10BD4078704738
:103B2000F0B583B0EFF30583DBB2CBB904460D46A5
:103B3000861F41F1FF37B04271EB070301D2002627
:103B4000374600F07BF9301A67EB0103012873F167
:103B5000000308DA2046294600F082F903B0F0BDE0
:103B60001848FFF739F800230093174A30463946C2
:103B7000FFF780FF002819DAECE7144B1A68EFF31F
:103B8000108172B6D2E8CFCF0120BCF1000FF9D17D
:103B9000C2E84C0FBCF1000FF4D1BFF35F8F1A687D
:103BA0000023C2E88F3F81F3108820BF084B5B6A77
:103BB0009F42E2D8064A926AB242CBD29F42C9D112
:103BC000DBE700BF7038011079350010C4680020B1
:103BD00000000B4038B504460D4600F02FF92018C0
:103BE00045EB0101002902DBFFF79AFF38BD4FF0DA
:103BF000FF306FF00041F7E708B5C30E4101091A25
:103C000063F100039B0043EA91738900091843F1B3
:103C10000003DB00C80043EA5171FFF7DBFF08BD7A
:103C2000F0B583B005460C46EFF30583DBB293B1E4
:103C3000384B5B6A8B4209D3364A926A824208D279
:103C40008B4201D0012002E0002000E0002003B000
:103C5000F0BD0120FBE7FFF77DFEC7680678384618
:103C600000F0C2F82A1A64EB0101043657F8263036
:103C70001B1A9A4271F1000112DB20BF254B5B6ACF
:103C80009C4209D8234A926AAA4207D29C4201D098
:103C90000120DCE70020DAE70020D8E70120D6E7A2
:103CA000002300931C4A28462146FFF7E3FE002824
:103CB00018DD184B5B6A9C4205D8164A926AAA42E4
:103CC00002D29C4200D120BFFFF720FF114B5B6A5C
:103CD0009C421BD80F4A926AAA4219D29C4213D026
:103CE0000120B4E70B4B5B6A9C4209D8094A926AEF
:103CF000AA4207D29C4201D00120A8E70020A6E7F3
:103D00000020A4E70120A2E70020A0E700209EE712
:103D100001209CE700000B4079350010F0B585B01C
:103D2000064614460C9D54EA030201D101240023E7
:103D3000AE600A9A2A612C606B600B9A6A611F461A
:103D4000002B15DB00F07AF8221847EB0103002B5B
:103D500012DB0121029101950A4900913046FFF7DB
:103D60006DFEE8600028D4BF0020012005B0F0BD42
:103D7000644263EB4307E5E74FF0FF326FF0004327
:103D8000E7E700BFB53500100048704700000B4062
:103D900010B50A4B1B6923B10A210948FFF768FBDC
:103DA00010BDFFF7F1FF0446032100F00BF81023CC
:103DB000032221460148FFF78FFDEDE7A8160020FA
:103DC000C468002010B5054A054C064BA04214BF3C
:103DD0001846581CFEF734FF10BD00BFC038011054
:103DE00000800B400C2800200246436A906A194666
:103DF000536A9942FAD17047416A00E0416A994298
:103E0000FCD300E0416A994202D1816A9142F9D320
:103E1000704770B5064614461D46FFF7E5FF0219C8
:103E200041EB0503824273EB010102D24FF0FF32F6
:103E300013463046FFF7E0FF70BD000008B50248AA
:103E4000FFF7D2FF08BD00BF00000B4008B50246D7
:103E50000B460248FFF7DDFF08BD00BF00000B4026
:103E600008B502460B460248FFF7C6FF08BD00BF73
:103E700000000B4070B51646049D00EB400C4FEA65
:103E80008C0C0CF1804C0CF5803CDCF80420AA4230
:103E900001D2CCF80450A0F1040E5FFA8EFEBEF100
:103EA000010F28D90CF540524FF4006414601E4AEB
:103EB00052F8202042B11C4C6469B4FBF2F4013486
:103EC00004EB4404033CFDD2DCF8002082EA4612F5
:103ED00002F0E0020CF580542260BEF1010F16D909
:103EE0000CF500524FF400611160CCF804500E4AFA
:103EF00042F8203070BD0129D4D10CF54052032482
:103F00001460DCF8082012F0010FFAD0DCE7DCF8CE
:103F100000204A4002F003022260DCF8084001223F
:103F20008A401442F9D0DBE7743D002010B582B01E
:103F30004FF480340094FFF79DFF02B010BD0000E5
:103F4000014B53F820007047743D002070B5049C6D
:103F5000344DB5FBF1FC344D1544344EB54237D8E1
:103F6000B2FBFCF5A5F1100EBEF5987F36D803F133
:103F7000FF3EBEF1060F37D804F1FF3EBEF1060F3B
:103F800032D8BCEB121F35D8240344EA034403683B
:103F9000002B35DB264B984242D00E2301229A405B
:103FA000244B1A6003F580531A60234B9B6832EA56
:103FB0000303FAD10160856000F5405204322123E9
:103FC00013600368002BFCDAC4600823136070BD23
:103FD0001A4B1B4A11211B4802F0D6FB1A4B184AF8
:103FE0001921184802F0D0FB184B154A1C2115481E
:103FF00002F0CAFB164B124A2321124802F0C4FBFE
:10400000036803F03F038B42C4D18368C3F30B03FF
:10401000AB42BFD1C36803F4EE23A342BAD1D6E7C3
:104020000F23BBE7001BB70080E84BD380F8A93211
:10403000008005400020024000000240E4380110EA
:10404000D84C0110343901107C3901109839011015
:10405000E4390110024B1A68024B5A60704700BFE6
:104060008C5D002000800D4008B5164B4FF080425B
:104070001A60A3F54123144A9A6051B103F5402315
:104080004FF0E0621A6048B9104B4FF000421A60DE
:1040900008BD0C4B4FF0E0621A60F4E74FF47A73FE
:1040A00003FB00F00A4B1860B0F1807F02D36FF081
:1040B0007F421A60FFF7CEFF044B4FF080421A6038
:1040C000E6E700BF00B00D40F3FFFF0100A00D4088
:1040D0008C5D002010B50C4B4FF080441C6070B11B
:1040E00040F0010309480A4CC4610A4C5C40046278
:1040F0004162836200211046FFF7B6FF10BD034BFB
:104100000021D961F6E700BF00B00D4000800D40EE
:10411000D3C007B02D3FF84F054A00EB400302EB38
:104120008303596000EB4000800001231350704767
:10413000008010402DE9F04105460E46174698468E
:104140000023DB8A002242E800F212F4800F0BD138
:10415000102144F252209847044643463A463146DD
:104160002846A047BDE8F081042144F25220984738
:104170000446F2E708B50023DB8A002242E800F299
:1041800012F4800F02D11021984708BD04219847EE
:10419000FBE708B5031E04DB41F020003AB141F013
:1041A00030010A460A214FF48170FFF7C3FF014630
:1041B000F7E70000034BD3F82838002BFAD0BFF301
:1041C0005F8F704700000E40002207E0054B13444C
:1041D0009B00BFF35F8F002119600132072AF5D9D8
:1041E000704700BF0382031008B5FFF7EDFF08BD5D
:1041F000074B4FF42A621A604FF48D72DA6003F5B0
:104200000053044A1A60024B5B68002BFBDA7047CC
:104210000080044000B0FA0010B5044602E054F8F3
:10422000043B9847014B9C42F9D310BD5023011029
:104230007047000008B50248FFF7EEFF08BD00BF59
:1042400010230110064B074A1A6003F58053064AF3
:104250001A60064B9A68044B9343FAD1704700BF2B
:10426000002002407F3BEFEFF6FFF3030000024027
:10427000054BDB6CB3F5004F00D07047034B4FF498
:104280008022DA64F9E700BF0000115000201150CD
:104290004FF0E022D2F8881D034B0B43C2F8883D53
:1042A00010EE3004704700BF03033000054B6FF081
:1042B00060421A60044B9B68DB4333F06043F9D1E2
:1042C000704700BF003002400000024008B545F2D0
:1042D0005320FFF74FFF03460420984708BD08B559
:1042E00045F25320FFF746FF03460120984708BDDB
:1042F00008B5FEF72DFD08BD10B50C490C4A521A41
:1043000092101446442A28BF44229200094808F01B
:1043100095FE04E0084A074B43F824200134432C5F
:10432000F8D9044A054B9A6010BD00BF0000001088
:1043300010010010000000201101001000ED00E04D
:1043400038B50420FFF7FCFD064BA3FB0035AD0C90
:10435000002404E02946E0B2FFF7DEFE0134052C1C
:10436000F8DD38BD83DE1B4330B583B0264B002219
:10437000C3F88420FFF73CFF244B0122DA63224B71
:104380005B6C012BFBD1214B03221A631E4B9B6BF1
:10439000012BFBD10224009405231D4A01211D4855
:1043A000FFF7D4FD052500952B461B4A01211B482C
:1043B000FFF7CCFD1A4B002221460420FFF7B6FD83
:1043C000184C2346002201212846FFF7AFFD164D69
:1043D0002B46002211460820FFF7A8FD2B4600229D
:1043E00011460920FFF7A2FD2346002211460620B0
:1043F000FFF79CFD2346002211460720FFF796FD9C
:10440000FFF79EFF03B030BD0000014000300140C7
:10441000002F685900000540008C86470080054049
:10442000001BB70080D1F008006CDC0286B003B43A
:1044300051FC0804CDE9020151FC0904CDE9040155
:1044400051EC0A04CDE9060103BCF047BDE8005079
:104450004EEC00C4BDE800504EEC01C4BDE8005075
:104460004EEC02C400BD000000B5FFF7DFFF02E024
:1044700010FE30F4F8D441EC100443EC112400EEAB
:10448000010410EE010480EE200451EC100470478A
:1044900000B5FFF7CBFF02E010FE30F4F8D441EC9A
:1044A000100443EC112400EE010410EE210480EE10
:1044B000200451EC3004704700B5FFF7B7FF02E06D
:1044C00010FE30F4F8D410B541EC100443EC112484
:1044D00051EC040453EC0524A0FB024C5FF0000EE9
:1044E000E0FB03CEE1FB02CE4CEC20440024E1FBD8
:1044F00003E444EC30E480EE200451EC5004BDE8C9
:104500001040704700B5FFF791FF02E010FE30F455
:10451000F8D441EC100443EC112451EC2104A0FB2D
:1045200001126FEA820252FB100052FB12F252FBA0
:104530001000A0EBD07C53EC04245CFB13F153EC93
:104540001524A1FB022001FB030053EC4424A2EB41
:10455000000050FB1CF24FEA111312EB017043EB09
:10456000E27140EA515020EA915020F0070053ECEC
:104570007524A0FB023C53EC752400FB03CC01FB2B
:1045800002CC53EC0424ACEB824C40EA5C70A0F10A
:10459000010041EC400480EE200451EC70047047AF
:1045A00000B5FFF743FF02E010FE30F4F8D441EC11
:1045B000100480EE220410EEB204704700B5FFF73D
:1045C00035FF02E010FE30F4F8D440EC700400EE49
:1045D000010410EE210480EE200451EC30047047F9
:1045E00000B5FFF723FF02E010FE30F4F8D440ECF2
:1045F000600400EE010410EE210480EE200451EC72
:104600003004704700B5FFF711FF02E010FE30F4F0
:10461000F8D441EC800400EE010410EE010480EEB9
:10462000400410EE1304704700B5FFF7FFFE02E0F0
:1046300010FE30F4F8D441EC800400EE010410EEDA
:10464000010480EE400410EE3304704700B5FFF71C
:10465000EDFE02E010FE30F4F8D441EC100443EC1F
:10466000112400EE010410EE3004C0F30070704716
:1046700000B5FFF7DBFE02E010FE30F4F8D441ECA9
:10468000100443EC112400EE010410EE3004C0F3DA
:104690008070704700B5FFF7C9FE02E010FE30F4ED
:1046A000F8D443EC102441EC110400EE010410EEA8
:1046B00030F48CBF01200020704700BF00B5FFF729
:1046C000B5FE02E010FE30F4F8D443EC102441ECC7
:1046D000110400EE010410EE30F42CBF0120002084
:1046E000704700BF00B5FFF7A1FE02E010FE30F4F6
:1046F000F8D441EC100443EC112400EE010410EE58
:1047000030F42CBF01200020704700BF00B5FFF738
:104710008DFE02E010FE30F4F8D441EC100443ECBE
:10472000112400EE010410EE30F48CBF01200020B3
:10473000704700BF404261EB410140F2F334B1FAEF
:1047400081F20C2A0CD2153211FA02F3C2F12002C6
:10475000D04021FA02F12244584141EB0251704706
:1047600069B1C2F12B0230FA02F3C2F1200291408A
:1047700090401943A4EB020201EB02517047010083
:104780004FF00000A4F12004D9D17047012767F34E
:104790001F5117FA03F817D0A0FB080701FB087197
:1047A000A1FB06785FEAD8469219A6FB047806FBBF
:1047B0000588090351EA1051D7EB003061EB08017D
:1047C000A94238BF70470BE00C33012717FA03F8F2
:1047D0000FD0A0FB080701FB0871A94238BF704742
:1047E00008BFA04238BF7047001B61EB05010132D2
:1047F000704703F1200311FA03F6D3F12003D840E8
:10480000D940304370470000000000000000000065
:104810000453B1086018850FC8E5F22A6E07271EF9
:104820000D12B2210412572F12557CBCDA30723FA0
:1048300017A717A55531994E9D0DBF0AEEE0AB5F46
:10484000E3EF6D9C7636AD6F697BCCE33D62BD7E58
:10485000F0810682F3FA428F37D5B78A5313C89E88
:104860007FABB320491570AF0000000000000000CE
:10487000025E88155580FF00907806B1A602FE0101
:10488000DC4E21F0EB88FB027A7C801F1615F803C2
:104890003C5DA9D110A9F304AA466CF5C146EE050A
:1048A000FF65E4EB09F0E70613C00C9EC3A6E00722
:1048B000E1BFEC91C46CD808D5AF5EFFDC43CF09F3
:1048C000466A72E4D72DC50A237E6E197B2CBA0B7B
:1048D000BFF571648741AE0C61DFB88CB86EA10D75
:1048E00009A9856DC5B5930E3153B1086018850FC0
:1048F0003071E498359875105915550580FF0F00F3
:1049000009C3EB8F80FB2F00B1910E9A82F34F0009
:104910001FE7FD2287E76F00C3A09A298FD78F007A
:104920004F4366AC9BC3AF00412A83A9ADABCF0018
:104930004FB7B41EC68FEF00B6815F09E66F0F0157
:10494000678589660E4C2F011A52DA3240244F01D6
:10495000483A9B6A7CF86E01FF81B709C4C88E0192
:104960009C8DBC0B1895AE017010DA6B795DCE0191
:104970003A3BE224E921EE0138739533427FECA003
:104980003114FAF5BD8689916B02FAE6E0F2918363
:10499000E682120713A85177212621686AB2736A4A
:1049A0009D0DBF0AEEE0AB5F19B4E0B71CB66A54C8
:1049B0009596E53DEF07A548D1CBE555DC0E4E3C7D
:1049C000CE68ADE839B5A432CB3CFA96D9569A28D0
:1049D000C9B21CA1F9FCAE21864B6BE58AD2F01658
:1049E0000453B1086018850F02C00C9EC3A6E007EF
:1049F0000000000000000000AC79CFD1F71772B1C1
:104A0000293BAAB84FEAC12040F00040490043F1D9
:104A1000200340F20001C3F6F071C3F10B0320FA4A
:104A200003F038BF7047404261F1000170475FEA10
:104A3000D17CC1F30A53A3F2FF330C2B62DA13F1DA
:104A4000200FDFDD2DE9F0413C4C70CC4FF000022F
:104A5000FFF79CFE1CF0010F04D06FEA0202201A3F
:104A600065EB010102F2FE3C40F2FE739C455CD214
:104A70000A0F334B03EBC2030CCB02F03F0545F0AA
:104A80004005801A99410A0E2E4B03EBC20318CB46
:104A900002F580725543C01AA1414A0D2A4B03EB1F
:104AA000C20318CB124402F5805205FB0255C01A0E
:104AB000A1418A0252EA905242F1000282FB023482
:104AC0005B0D53EAC423C01841EB545184FB0234FC
:104AD0004FF0553383FB043454FB11F304EB930480
:104AE00010EB440241EBE473E900A1FB0240C1FB7F
:104AF0000301400A50EBC1504FEA512151EB0C51D8
:104B0000BDE8F081B3F5806F07D150EA01320CBFE8
:104B100021EAE17141F400217047002000211CF0DE
:104B2000010F08BFC7F6F07170474FF000004FF05B
:104B30000001A8BFC7F6F071BDE8F081F849001088
:104B40000848001068480010F848001040F20001C2
:104B5000CFF6F0710020704750EA013218BF41F4DF
:104B6000002170477FEAA65540F019814FF4805428
:104B700020E18CEA11331B0640F0EE80BCF1000FFF
:104B800067D1C90451EA5031C004B1FA81F4202C34
:104B90004BD20125A540A0FB052301FB0533A0FB5B
:104BA00003C5A1FB02C6E1FB6356B2EB152263F11C
:104BB0000003B2EB066273EB1623A0FB06C7A1FB52
:104BC00005C8E1FB66784FF05535A7FB05C65FF0D9
:104BD000000CE8FB056C16EB0C064CF1000C12EB1C
:104BE000963243F1000312EB8C4243EB9C3358FBAB
:104BF00011F55FF0333755FB11F656FB17F8A5EBAF
:104C0000581756FB11F5C2F6802656FB15F507EB33
:104C10001537B2EB472063EBD751C4F58064A4F19C
:104C20001504FFF78CFDBDE8F081B0FA80F410FAAE
:104C300004F1A0FB01234FF00000B0EB132061F161
:104C40000001C4F58064A4F13504FFF778FDBDE8E8
:104C5000F081890451EA90318004404261EB4101C6
:104C6000B1FA81F4202C4ED2013C0125A540A0FBD5
:104C7000052301FB0533A0FB03C5A1FB02C6E1FB35
:104C8000635612EB152243F1000312EB066253EB5D
:104C90001623A0FB06C7A1FB05C8E1FB66784FF011
:104CA0005535A7FB05C65FF0000CE8FB056C16EB5D
:104CB0000C064CF1000C12EB963243F1000312EBA0
:104CC0008C4243EB9C3358FB11F55FF0333755FBB7
:104CD00011F656FB17F805EB581756FB11F5C2F6FF
:104CE000802656FB15F507EB153712EB472043EBF3
:104CF000D751C4F58064A4F11504FFF720FD41F0FD
:104D00000041BDE8F081B0FA80F410FA04F1A0FB94
:104D100001234FEA1320C4F58064A4F13504FFF7A2
:104D20000EFD91F00041BDE8F0815FEA410CBFF457
:104D30000DAF5FEA5C5C3FF409AFACF2FF3CBCF541
:104D4000806F3FF409AF012262F31F512DE9F0415A
:104D5000BCEBEC7F3FF40DAF0C0C4E4D05EBC405E6
:104D600095E80C0002F03F0505F14005A5FB0006A3
:104D700005FB01616FEAE14404F01F04464D05EBB9
:104D8000C40560CD521943EB060304F58074A4FBFF
:104D9000000604FB01667FEA26643FF4E3AE3F4D64
:104DA00005EBC40522CD521843EB050341F2010582
:104DB00005EB44046404A4FB0050C4EBC401E4FB11
:104DC000060180EAE17481EAE175A5FB0567A4FBB1
:104DD00005487F084FEA360616EB080647F100073C
:104DE0008C0254EA905444F10004801B61EB0701EB
:104DF00054FB14F555FB14F655FB15F74FF05534DD
:104E000056FB14F6B6EB173610EB860041EBA67195
:104E1000101A63EB0101224A24CA1CF1010C0BDDBC
:104E2000A2FB0C230024E5FB0C34121A8B4164F125
:104E300000045FF080410CE0DCF1000CA2FB0C23CD
:104E40000024E5FB0C3482184B4144F100045FF070
:104E500040414CB91C0013000022B1F100711CB993
:104E60001C000023B1F10071B4FA84F5A5F11D0610
:104E7000A1EB0651AC4013FA05F0C5F12005EB405B
:104E80001C43EA401043C00A50EB445041EBD4218C
:104E9000BDE8F081F848001068480010F84800109C
:104EA000F84900100022002950DA404261EB41012C
:104EB000C9B1B1FA81F30B3B17D4D3F1200C30FA0E
:104EC0000CFC9840994051EA0C011A44524202F2FB
:104ED000324201EB025141F0004140F2FE739A422E
:104EE00038BF704721E011467EE003F1210310FA3C
:104EF00003FCA3F1010301FA03FCC3F1200320FA30
:104F000003F021FA03F140EA0C00A3EB020202F2E3
:104F1000324214D050F1000041EB025141F0004107
:104F200040F2FE739A4238BF70474FF00001A8BFAD
:104F3000C7F6F0714FF00000704700217047EBD3C7
:104F400050F1000020F00100E6E70022B9B1B1FA0B
:104F500081F30B3B16D4D3F1200C30FA0CFC9840B3
:104F6000994051EA0C011A44524202F2324201EBDA
:104F7000025140F2FE739A4238BF704720E011465A
:104F800000F066B803F1210310FA03FCA3F101035A
:104F900001FA03FCC3F1200320FA03F021FA03F124
:104FA00040EA0C00A3EB020202F2324212D050F1AE
:104FB000000041EB025140F2FE739A4238BF704745
:104FC0004FF00001A8BFC7F6F0714FF00000704726
:104FD00000217047EDD350F1000020F00100E8E718
:104FE000002880F235804042B0FA80F30B3B11D4A8
:104FF000984001EB0302524202F2124200EB0251CE
:1050000041F000414FF0000040F2FE739A4238BF79
:10501000704713E0C3F1000330FA03FCC3F1200230
:105020009040A3EB010202F212420CEB025141F05C
:10503000004140F2FE739A4238BF70474FF0004182
:10504000A8BFCFF6F0714FF0000070470021704705
:1050500060B3B0FA80F30B3B0FD4984001EB03022E
:10506000524202F2124200EB02514FF0000040F2B5
:10507000FE739A4238BF704710E05B4230FA03FC7F
:10508000C3F120029040A3EB010202F212420CEBAA
:10509000025140F2FE739A4238BF70474FF0000150
:1050A000A8BFC7F6F0714FF00000704700217047AD
:1050B0000022A2F232425FEA215CACF10103A1EBD3
:1050C00003515B0513F5800F32D212EB535210D40B
:1050D0000B2A36DA9140D2F1200330FA03F3194358
:1050E0009040BCF1000FA8BF7047404261EB410106
:1050F000704720320EDD01FA02F3D2F12002D140D6
:10510000D0401843BCF1000FA8BF7047404261EB8C
:1051100041017047524282F3050231FA02F0002148
:10512000BCF1000FA8BF7047404261EB41017047DE
:1051300002D000200021704750EA013118BF4FF023
:10514000000C6FF0004101EBDC716FEAEC7070470E
:10515000C0F3C7536BB17F3B0DD4C3F11703002BD2
:105160000BDD012202FA03F3013B034207D1104693
:1051700070470120704700207047012070470020D1
:105180007047C0F3C7537F3B0DD4D3F117030CD442
:1051900001229A40013A024209D1172B09D0D84086
:1051A00000F0010070470020704700207047002089
:1051B00070470120704710F0FF4308D0B3F1FF4F54
:1051C00007D0C0F31600B0FA80F040097047002005
:1051D00070470020704738B50546012911D00C46AC
:1051E00001EBD1714910FFF7F6FF07EE900A67EE69
:1051F000A77A14F0010F06D007EE105A67EE877AEF
:1052000001E007EE900A17EE900A38BD08B50029B4
:1052100002DBFFF7E0FF08BDF7EE007A07EE100AA9
:10522000C7EE877A17EE900A4942F2E770B50E464C
:105230000DF036F8FFF779FD04460D4630460DF0C7
:105240002FF802460B4620462946FFF739F9FFF7AB
:10525000EEFBFFF7A9F970BD2DE9F0410F460446BA
:10526000C60F12D00846FFF78CFF40B1394604F153
:105270000040FFF7F1FF00F10040BDE8F081394642
:1052800004F10040FFF7E8FFF7E707EE901AFDEEA4
:10529000E77A17EE908AFFF78EFF58B9B8F1000F42
:1052A0002BD008F12003402B22D939462046FFF7A6
:1052B000BDFFE2E7C4F3C7547F3CB8F1FF0F05DC44
:1052C00018F5807F04DA6FF0FF0801E04FF0FF0867
:1052D00004FB08F404F17F03002B07DDFE2B03DC45
:1052E000E40504F17E5601E04FF0FF463046C4E786
:1052F00041462046FFF78AFFBFE74FF07E50BCE7EC
:1053000038B52DED028B08EE100AF7EE007AB4EEF8
:10531000678AF1EE10FA1DD00C460B4611F0FF42E1
:1053200018D0FFEE007AB4EE678AF1EE10FA02D1DF
:10533000B2F1FF4F5ED018EE105A15F0FF4F18D1A2
:10534000002B0CDB2046FFF71CFF002855D018EE81
:10535000100A01E04FF07E50BDEC028B38BD2046B4
:10536000FFF70FFF00284AD005F0004040F0FF4053
:10537000F2E7EA0DFF2A13D040F2FF118A4213D060
:10538000DB0DFF2B1FD040F2FF118B4220D02046B7
:10539000FFF7DEFE10BB002D26DA4FF0FF40DBE703
:1053A000002B2FDA0020D7E7002B05DB2046FFF784
:1053B000E8FE50B31A48CFE72046FFF7E2FE38B3C5
:1053C0004FF00040C8E7D2B27E2A23DC0020C3E7BA
:1053D000D2B27E2A21DC4FF0FF40BDE7214618EE15
:1053E000100AFFF739FFB7E7214618EE100AFFF75A
:1053F0001DFFB1E74FF07E50AEE70020ACE74FF065
:10540000FF40A9E74FF0FF40A6E74FF0FF40A3E7BA
:105410000020A1E74FF0FF409EE700209CE700BF7F
:10542000000080FF08B528B103460B44034A9342AD
:1054300000D808BD0248FDF7CFFB00BF00000820E0
:10544000003A011038B5054606F02AFB0446294605
:10545000FFF7E8FF204638BD70B505460E4606F05A
:10546000DFFA044606FB05F1FFF7DCFF204670BDBE
:1054700038B50D4606F00CFE04462946FFF7D2FF6C
:10548000204638BD08B506F013FB08BD9A4200D28D
:1054900088547047704720B108B50A68496890473A
:1054A00008BD70470146002008E000EB8000531C57
:1054B0000B60137803EB4003A3F130000A68137804
:1054C000303BDBB2092BF0D970472DE9F04F83B0A8
:1054D00005460E4693461F46DDF830A00D9CDDF8CC
:1054E00038900F9B13F0030F19D1A046019208E0EA
:1054F00002F1010B3B4631462020A84708F1010884
:105500005A46C845F4D3DDF804B008E0013C02F186
:1055100001083B4631461AF80400A8474246002CD1
:10552000F4D10F9B13F0020F09D1104603B0BDE870
:10553000F08F541C3B4631462020A8472246A2EB60
:105540000B034B45F5D3F0E72DE9F04385B09946C1
:105550000C9D0D9C9DF83880DDF840E0119F129E57
:1055600016F0020F21D17FB116F0010F0CD0B8F167
:10557000000F02D116F00C0F06D0013F04E04FF0EF
:10558000300C05F804C00134744501D21F2CF6D943
:1055900016F0010F09D0BC4207D21F2C05D84FF0DE
:1055A000300C05F804C00134F2E716F0100F14D0E7
:1055B00016F4806F04D11CB1744522D0BC4220D0B7
:1055C0000F9B102B33D00F9B022B3DD01F2C0ED8DE
:1055D0004FF0300C05F804C001341F2C07D8B8F187
:1055E000000F39D04FF02D0C05F804C0013403969C
:1055F0000297019400954B46FFF767FF05B0BDE8A1
:10560000F083B4F1010C1DD00F9B102B0ED064461B
:105610000F9B102BD7D116F0200FD4D01F2CD2D82F
:105620004FF0580C05F804C00134CFE7023C16F0E7
:10563000200FEDD11F2CEBD84FF0780C05F804C0EB
:105640000134C3E76446BBE71F2CD0D84FF0620C8F
:1056500005F804C00134B9E716F0040F05D04FF087
:105660002B0C05F804C00134C1E716F0080FBED0BA
:105670004FF0200C05F804C00134B8E7F0B591B044
:10568000169C189D1B9E0CB926F0100616F4806E11
:105690001DD064B34FF0000E19E016F0200F24D097
:1056A0004127BC445FFA8CFCACF10A0C5FFA8CFC1D
:1056B0000EF101070EF1400EEE440EF820CCB4FBC3
:1056C000F5FCAC4214D31F2F12D8BE466446B4FB7F
:1056D000F5FC05FB1C4C5FFA8CFCBCF1090FDCD817
:1056E0000CF1300C5FFA8CFCE2E76127D9E7274622
:1056F00006961A9C0594199C049403959DF85C40A9
:105700000294019708AC0094FFF71EFF11B0F0BDA2
:105710002DE9F04F95B009900A910B929846DDF86B
:1057200078B0DDF87C90229D239F269E5BEA0902DB
:1057300001D126F0100616F4806424D05BEA090239
:105740002FD000241FE016F0200F28D0412313444F
:10575000DBB20A3BDBB204F1010A04F150020DEBAB
:10576000020404F8203C2A463B46584649460CF0C1
:105770009BFDAB4579EB070915D3BAF11F0F12D882
:105780005446834689462A463B46584649460CF0CD
:105790008BFDD2B2092AD6D83032D3B2DBE76123EF
:1057A000D5E74FF0000A0696259B0593249B0493AA
:1057B00003959DF880300293CDF804A00CAB0093C4
:1057C00043460B9A0A990998FFF7BEFE15B0BDE84B
:1057D000F08F0000000000002DE9F04F93B0044668
:1057E0000D4617461E46DDE91CAB52465B46504649
:1057F0005946FEF72FFF002840F0F3804FF0FF32AC
:10580000AD4B50465946FEF785FF002840F0E98031
:105810004FF0FF326FF4801350465946FEF73EFFBB
:10582000002840F0DE800022002350465946FEF753
:1058300035FF002840F0E680CDE906AB209B13F44D
:1058400080630F9301D106231E93DDE906231046E2
:105850001946CDE90A01079B52EA030100F0DC80FA
:10586000C3F30A50C3F31303904643F07F5949F43E
:105870004019A0F2FF30FEF7A5FE7DA3D3E9002377
:10588000FEF71EFE7CA3D3E90023FEF7F1FDCDE970
:1058900008010022894B40464946FEF7FDFD78A3EA
:1058A000D3E90023FEF70CFE02460B46DDE90801B2
:1058B000FEF7DEFDFEF7AAFE0890FEF783FE8046A7
:1058C000894671A3D3E90023FEF7FAFD00227C4B41
:1058D000FEF7CEFDFEF79AFE0A906DA3D3E90023F2
:1058E00040464946FEF7ECFD804689460A98FEF799
:1058F00069FE69A3D3E90023FEF7E2FD02460B46E9
:1059000040464946FEF7C8FD8046894602460B469A
:10591000FEF7D6FDCDE90C010A9B03F2FF3300210F
:105920000022CDE90A121B050B9300230A9342467D
:105930004B4640464946FEF79BFDCDE910014246E5
:105940004B4600204FF08041FEF7A6FD8046894679
:1059500000225C4BDDE90C01FEF7D8FD00225A4B1A
:10596000FEF786FD02460B46DDE90C01FEF7CEFD93
:105970000022564BFEF77CFD02460B46DDE90C018A
:10598000FEF7C4FD02460B4640464946FEF770FD51
:1059900002460B46DDE91001FEF7B8FD00224C4B34
:1059A000FEF766FDDDE90A23FEF78AFD804689469B
:1059B000CDE90A89DDE90623FEF7ACFE50B1089B6C
:1059C000013B08930022404B40464946FEF79EFDAE
:1059D000CDE90A01089B6333C62B46D84FF0040873
:1059E0001EE0209B04931F9B03931E9B0293CDE913
:1059F00000AB33463A462946204600F0FDF813B086
:105A0000BDE8F08F9FED267B8DED067BCDF818A0CD
:105A10000BF10043079311E7002308934FF00408AC
:105A2000209B13F4006F5FD0DDE90A1213460B438D
:105A300013D01DA3D3E90023DDE90601FEF756FECE
:105A4000002800F0B4801AA3D3E90023DDE90601A1
:105A5000FEF724FE002800F0AA801E9A089B9A42B6
:105A600038DDD31A013B1E9336E04FF00508D7E727
:105A7000FB799F501344D33FB3C8608B288AC63F3D
:105A800061436F63A787D23F71A379094F930A409F
:105A90001655B5BBB16B0240EF39FAFE422EE63F18
:105AA00000000000000000002D431CEBE2361A3F0E
:105AB0000000000080842E41FFFFEF7F0000F83FD0
:105AC0000000E03F00002C4000002440000018408F
:105AD0000000F03F00231E93209B43F4806320933B
